{
  "contractName": "GameStorage",
  "abi": [
    {
      "inputs": [],
      "stateMutability": "nonpayable",
      "type": "constructor"
    },
    {
      "anonymous": false,
      "inputs": [
        {
          "indexed": true,
          "internalType": "address",
          "name": "previousAdmin",
          "type": "address"
        },
        {
          "indexed": true,
          "internalType": "address",
          "name": "newAdmin",
          "type": "address"
        }
      ],
      "name": "AdminSet",
      "type": "event"
    },
    {
      "anonymous": false,
      "inputs": [
        {
          "indexed": true,
          "internalType": "address",
          "name": "previousAgent",
          "type": "address"
        },
        {
          "indexed": true,
          "internalType": "address",
          "name": "newAgent",
          "type": "address"
        }
      ],
      "name": "AgentAccountSet",
      "type": "event"
    },
    {
      "anonymous": false,
      "inputs": [
        {
          "indexed": false,
          "internalType": "uint256",
          "name": "rate",
          "type": "uint256"
        }
      ],
      "name": "AgentRateSet",
      "type": "event"
    },
    {
      "anonymous": false,
      "inputs": [
        {
          "indexed": true,
          "internalType": "address",
          "name": "previousOwner",
          "type": "address"
        },
        {
          "indexed": true,
          "internalType": "address",
          "name": "newOwner",
          "type": "address"
        }
      ],
      "name": "OwnershipTransferred",
      "type": "event"
    },
    {
      "anonymous": false,
      "inputs": [
        {
          "indexed": true,
          "internalType": "address",
          "name": "previousPlatform",
          "type": "address"
        },
        {
          "indexed": true,
          "internalType": "address",
          "name": "newPlatform",
          "type": "address"
        }
      ],
      "name": "PlatformAccountSet",
      "type": "event"
    },
    {
      "inputs": [
        {
          "internalType": "address",
          "name": "account",
          "type": "address"
        }
      ],
      "name": "isOwner",
      "outputs": [
        {
          "internalType": "bool",
          "name": "",
          "type": "bool"
        }
      ],
      "stateMutability": "view",
      "type": "function"
    },
    {
      "inputs": [],
      "name": "owner",
      "outputs": [
        {
          "internalType": "address",
          "name": "",
          "type": "address"
        }
      ],
      "stateMutability": "view",
      "type": "function"
    },
    {
      "inputs": [],
      "name": "renounceOwnership",
      "outputs": [],
      "stateMutability": "nonpayable",
      "type": "function"
    },
    {
      "inputs": [
        {
          "internalType": "address",
          "name": "newOwner",
          "type": "address"
        }
      ],
      "name": "transferOwnership",
      "outputs": [
        {
          "internalType": "bool",
          "name": "",
          "type": "bool"
        }
      ],
      "stateMutability": "nonpayable",
      "type": "function"
    },
    {
      "inputs": [],
      "name": "isStorage",
      "outputs": [
        {
          "internalType": "bool",
          "name": "",
          "type": "bool"
        }
      ],
      "stateMutability": "view",
      "type": "function"
    },
    {
      "inputs": [
        {
          "internalType": "address",
          "name": "newAdmin",
          "type": "address"
        }
      ],
      "name": "setAdmin",
      "outputs": [],
      "stateMutability": "nonpayable",
      "type": "function"
    },
    {
      "inputs": [],
      "name": "admin",
      "outputs": [
        {
          "internalType": "address",
          "name": "",
          "type": "address"
        }
      ],
      "stateMutability": "view",
      "type": "function"
    },
    {
      "inputs": [
        {
          "internalType": "address payable",
          "name": "newAgent",
          "type": "address"
        }
      ],
      "name": "setAgentAccount",
      "outputs": [],
      "stateMutability": "nonpayable",
      "type": "function"
    },
    {
      "inputs": [],
      "name": "agent",
      "outputs": [
        {
          "internalType": "address",
          "name": "",
          "type": "address"
        }
      ],
      "stateMutability": "view",
      "type": "function"
    },
    {
      "inputs": [
        {
          "internalType": "address payable",
          "name": "newPlatform",
          "type": "address"
        }
      ],
      "name": "setPlatformAccount",
      "outputs": [],
      "stateMutability": "nonpayable",
      "type": "function"
    },
    {
      "inputs": [],
      "name": "platform",
      "outputs": [
        {
          "internalType": "address",
          "name": "",
          "type": "address"
        }
      ],
      "stateMutability": "view",
      "type": "function"
    },
    {
      "inputs": [
        {
          "internalType": "uint256",
          "name": "newAgentFeeRate",
          "type": "uint256"
        }
      ],
      "name": "setAgentFeeRate",
      "outputs": [],
      "stateMutability": "nonpayable",
      "type": "function"
    },
    {
      "inputs": [],
      "name": "agentFeeRate",
      "outputs": [
        {
          "internalType": "uint256",
          "name": "",
          "type": "uint256"
        }
      ],
      "stateMutability": "view",
      "type": "function"
    },
    {
      "inputs": [
        {
          "internalType": "bytes32",
          "name": "gameHash",
          "type": "bytes32"
        },
        {
          "internalType": "uint256",
          "name": "name",
          "type": "uint256"
        },
        {
          "internalType": "uint256",
          "name": "startTime",
          "type": "uint256"
        },
        {
          "internalType": "uint256",
          "name": "endTime",
          "type": "uint256"
        },
        {
          "internalType": "uint256",
          "name": "minAmount",
          "type": "uint256"
        },
        {
          "internalType": "uint256",
          "name": "maxAmount",
          "type": "uint256"
        },
        {
          "internalType": "uint256",
          "name": "feeRate",
          "type": "uint256"
        },
        {
          "internalType": "uint256",
          "name": "status",
          "type": "uint256"
        }
      ],
      "name": "createGame",
      "outputs": [],
      "stateMutability": "nonpayable",
      "type": "function"
    },
    {
      "inputs": [
        {
          "internalType": "bytes32",
          "name": "gameHash",
          "type": "bytes32"
        },
        {
          "internalType": "uint256",
          "name": "status",
          "type": "uint256"
        },
        {
          "internalType": "uint256",
          "name": "result",
          "type": "uint256"
        }
      ],
      "name": "setGameResult",
      "outputs": [],
      "stateMutability": "nonpayable",
      "type": "function"
    },
    {
      "inputs": [
        {
          "internalType": "bytes32",
          "name": "gameHash",
          "type": "bytes32"
        }
      ],
      "name": "getGame",
      "outputs": [
        {
          "internalType": "uint256",
          "name": "name",
          "type": "uint256"
        },
        {
          "internalType": "uint256",
          "name": "startTime",
          "type": "uint256"
        },
        {
          "internalType": "uint256",
          "name": "endTime",
          "type": "uint256"
        },
        {
          "internalType": "uint256",
          "name": "minAmount",
          "type": "uint256"
        },
        {
          "internalType": "uint256",
          "name": "maxAmount",
          "type": "uint256"
        },
        {
          "internalType": "uint256",
          "name": "feeRate",
          "type": "uint256"
        },
        {
          "internalType": "uint256",
          "name": "status",
          "type": "uint256"
        },
        {
          "internalType": "uint256",
          "name": "result",
          "type": "uint256"
        }
      ],
      "stateMutability": "view",
      "type": "function"
    },
    {
      "inputs": [
        {
          "internalType": "uint256",
          "name": "index",
          "type": "uint256"
        }
      ],
      "name": "getGameHash",
      "outputs": [
        {
          "internalType": "bytes32",
          "name": "gameHash",
          "type": "bytes32"
        }
      ],
      "stateMutability": "view",
      "type": "function"
    },
    {
      "inputs": [],
      "name": "getGameLength",
      "outputs": [
        {
          "internalType": "uint256",
          "name": "length",
          "type": "uint256"
        }
      ],
      "stateMutability": "view",
      "type": "function"
    },
    {
      "inputs": [
        {
          "internalType": "bytes32",
          "name": "gameHash",
          "type": "bytes32"
        },
        {
          "internalType": "address",
          "name": "voter",
          "type": "address"
        },
        {
          "internalType": "uint256",
          "name": "amount",
          "type": "uint256"
        }
      ],
      "name": "setOption1",
      "outputs": [],
      "stateMutability": "nonpayable",
      "type": "function"
    },
    {
      "inputs": [
        {
          "internalType": "bytes32",
          "name": "gameHash",
          "type": "bytes32"
        },
        {
          "internalType": "address",
          "name": "voter",
          "type": "address"
        },
        {
          "internalType": "uint256",
          "name": "amount",
          "type": "uint256"
        }
      ],
      "name": "setOption2",
      "outputs": [],
      "stateMutability": "nonpayable",
      "type": "function"
    },
    {
      "inputs": [
        {
          "internalType": "bytes32",
          "name": "gameHash",
          "type": "bytes32"
        }
      ],
      "name": "getGameVote",
      "outputs": [
        {
          "internalType": "uint256",
          "name": "option1Amount",
          "type": "uint256"
        },
        {
          "internalType": "uint256",
          "name": "option2Amount",
          "type": "uint256"
        },
        {
          "internalType": "uint256",
          "name": "option1Count",
          "type": "uint256"
        },
        {
          "internalType": "uint256",
          "name": "option2Count",
          "type": "uint256"
        }
      ],
      "stateMutability": "view",
      "type": "function"
    },
    {
      "inputs": [
        {
          "internalType": "bytes32",
          "name": "gameHash",
          "type": "bytes32"
        },
        {
          "internalType": "address",
          "name": "account",
          "type": "address"
        }
      ],
      "name": "getPayerVote",
      "outputs": [
        {
          "internalType": "uint256",
          "name": "option1Amount",
          "type": "uint256"
        },
        {
          "internalType": "uint256",
          "name": "option2Amount",
          "type": "uint256"
        }
      ],
      "stateMutability": "view",
      "type": "function"
    },
    {
      "inputs": [
        {
          "internalType": "bytes32",
          "name": "gameHash",
          "type": "bytes32"
        },
        {
          "internalType": "address",
          "name": "account",
          "type": "address"
        },
        {
          "internalType": "uint256",
          "name": "newBalance",
          "type": "uint256"
        }
      ],
      "name": "setBalance",
      "outputs": [],
      "stateMutability": "nonpayable",
      "type": "function"
    },
    {
      "inputs": [
        {
          "internalType": "bytes32",
          "name": "gameHash",
          "type": "bytes32"
        },
        {
          "internalType": "address",
          "name": "account",
          "type": "address"
        }
      ],
      "name": "getBalance",
      "outputs": [
        {
          "internalType": "uint256",
          "name": "",
          "type": "uint256"
        }
      ],
      "stateMutability": "view",
      "type": "function"
    },
    {
      "inputs": [
        {
          "internalType": "bytes32",
          "name": "gameHash",
          "type": "bytes32"
        },
        {
          "internalType": "uint256",
          "name": "fee",
          "type": "uint256"
        }
      ],
      "name": "liquidateOption1",
      "outputs": [],
      "stateMutability": "nonpayable",
      "type": "function"
    },
    {
      "inputs": [
        {
          "internalType": "bytes32",
          "name": "gameHash",
          "type": "bytes32"
        },
        {
          "internalType": "uint256",
          "name": "fee",
          "type": "uint256"
        }
      ],
      "name": "liquidateOption2",
      "outputs": [],
      "stateMutability": "nonpayable",
      "type": "function"
    },
    {
      "inputs": [
        {
          "internalType": "bytes32",
          "name": "gameHash",
          "type": "bytes32"
        }
      ],
      "name": "cancel",
      "outputs": [],
      "stateMutability": "nonpayable",
      "type": "function"
    }
  ],
  "bytecode": "0x60806040526000805460a060020a60ff0219167401000000000000000000000000000000000000000017905534801561003757600080fd5b5060008054600160a060020a031916331790556117e9806100596000396000f3fe608060405234801561001057600080fd5b50600436106101c6576000357c0100000000000000000000000000000000000000000000000000000000900480637f2e4cb511610116578063cdfb8b0e116100b4578063f066559c1161008e578063f066559c146103a2578063f2fde38b146103b5578063f5ff5c76146103c8578063f851a440146103d0576101c6565b8063cdfb8b0e14610369578063d1988b6a1461037c578063dc1dca241461038f576101c6565b8063afc55a40116100f0578063afc55a4014610318578063becd1d8414610320578063c11481c614610333578063c4d252f514610356576101c6565b80637f2e4cb5146102ea5780638da5cb5b146102fd578063a508ca5514610305576101c6565b80634bde38c811610183578063704b6c021161015d578063704b6c0214610295578063715018a6146102a857806373931bbf146102b05780637917f8dd146102d7576101c6565b80634bde38c81461025a5780634e6f58df1461026f578063530e931c14610282576101c6565b8063028e792e146101cb578063071b267c146101f5578063086365941461020a5780632978c76c1461021f5780632f54bf6e1461023257806343fb86d214610252575b600080fd5b6101de6101d93660046112b5565b6103d8565b6040516101ec929190611697565b60405180910390f35b6102086102033660046112e4565b610415565b005b610212610471565b6040516101ec91906113da565b61020861022d3660046112e4565b610477565b610245610240366004611281565b6105be565b6040516101ec91906113cf565b6102126105d2565b6102626105d8565b6040516101ec91906113bb565b61020861027d366004611281565b6105e7565b6102126102903660046112b5565b610695565b6102086102a3366004611281565b6106bf565b61020861076d565b6102c36102be36600461129d565b6107ec565b6040516101ec9897969594939291906116c0565b6102086102e5366004611281565b61086e565b6102086102f83660046112e4565b61091c565b610262610a1d565b61020861031336600461131b565b610a2c565b610245610b51565b61020861032e36600461131b565b610b72565b61034661034136600461129d565b610c89565b6040516101ec94939291906116a5565b61020861036436600461129d565b610cb4565b61020861037736600461133c565b610e36565b61021261038a36600461129d565b610e83565b61020861039d36600461129d565b610ebb565b6102086103b0366004611367565b610f46565b6102456103c3366004611281565b610fe8565b610262611023565b610262611032565b600091825260076020908152604080842060088352818520600160a060020a03909416855260019081018352818520549301909152909120549091565b600154600160a060020a0316331461044b5760405160e560020a62461bcd02815260040161044290611660565b60405180910390fd5b6000928352600960209081526040808520600160a060020a039094168552929052912055565b60045490565b600154600160a060020a031633146104a45760405160e560020a62461bcd02815260040161044290611660565b6000838152600860209081526040808320600160a060020a038616845260018101909252909120546104d69083611041565b600160a060020a038416600090815260018301602052604090205560028101546105009083611041565b60028201556000805b82548110156105785784600160a060020a03168360000182815481106105425760e060020a634e487b7102600052603260045260246000fd5b600091825260209091200154600160a060020a031614156105665760019150610578565b8061057081611767565b915050610509565b50806105b757815460018101835560008381526020902001805473ffffffffffffffffffffffffffffffffffffffff1916600160a060020a0386161790555b5050505050565b600054600160a060020a0390811691161490565b60055490565b600354600160a060020a031690565b6105f0336105be565b61060f5760405160e560020a62461bcd028152600401610442906115f2565b600160a060020a0381166106385760405160e560020a62461bcd02815260040161044290611436565b6002805473ffffffffffffffffffffffffffffffffffffffff1916600160a060020a0383811691821792839055604051919216907f4847b87d63507f2cb796d22c7dac1c2a800a216fbf78e8a64bd97769a418b07190600090a350565b6000828152600960209081526040808320600160a060020a03851684529091529020545b92915050565b6106c8336105be565b6106e75760405160e560020a62461bcd028152600401610442906115f2565b600160a060020a0381166107105760405160e560020a62461bcd0281526004016104429061155e565b6001805473ffffffffffffffffffffffffffffffffffffffff1916600160a060020a0383811691821792839055604051919216907fbf265e8326285a2747e33e54d5945f7111f2b5edb826eb8c08d4677779b3ff9790600090a350565b610776336105be565b6107955760405160e560020a62461bcd028152600401610442906115f2565b60008054604051600160a060020a03909116907f8be0079c531659141344cd1fd0a4f28419497f9722a3daafe3b4186f6b6457e0908390a36000805473ffffffffffffffffffffffffffffffffffffffff19169055565b600090815260066020818152604092839020835161010081018552815480825260018301549382018490526002830154958201869052600383015460608301819052600484015460808401819052600585015460a085018190529685015460c0850181905260079095015460e090940184905291979496959094919390929091565b610877336105be565b6108965760405160e560020a62461bcd028152600401610442906115f2565b600160a060020a0381166108bf5760405160e560020a62461bcd02815260040161044290611501565b6003805473ffffffffffffffffffffffffffffffffffffffff1916600160a060020a0383811691821792839055604051919216907f24735eae923f369491092209dec4b0c226c4637f6b44fc6ba889dd9efee5b7fd90600090a350565b600154600160a060020a031633146109495760405160e560020a62461bcd02815260040161044290611660565b6000838152600760209081526040808320600160a060020a0386168452600181019092529091205461097b9083611041565b600160a060020a038416600090815260018301602052604090205560028101546109a59083611041565b60028201556000805b82548110156105785784600160a060020a03168360000182815481106109e75760e060020a634e487b7102600052603260045260246000fd5b600091825260209091200154600160a060020a03161415610a0b5760019150610578565b80610a1581611767565b9150506109ae565b600054600160a060020a031690565b600154600160a060020a03163314610a595760405160e560020a62461bcd02815260040161044290611660565b60008281526007602052604081209080610a7285610c89565b50509150915060005b8354811015610b49576000846000018281548110610aac5760e060020a634e487b7102600052603260045260246000fd5b6000918252602080832090910154600160a060020a031680835260018801909152604082205490925090610ae0828761107a565b90506000610aee868a611097565b90506000610b0684610b0085856110d9565b90611041565b90506000610b148c87610695565b90506000610b228284611041565b9050610b2f8d8883610415565b505050505050508080610b4190611767565b915050610a7b565b505050505050565b60005474010000000000000000000000000000000000000000900460ff1690565b600154600160a060020a03163314610b9f5760405160e560020a62461bcd02815260040161044290611660565b60008281526008602052604081209080610bb885610c89565b50509150915060005b8354811015610b49576000846000018281548110610bf25760e060020a634e487b7102600052603260045260246000fd5b6000918252602080832090910154600160a060020a031680835260018801909152604082205490925090610c26828661107a565b90506000610c34878a611097565b90506000610c4684610b0085856110d9565b90506000610c548c87610695565b90506000610c628284611041565b9050610c6f8d8883610415565b505050505050508080610c8190611767565b915050610bc1565b6000908152600760209081526040808320600890925290912060028083015490820154925491549093565b600154600160a060020a03163314610ce15760405160e560020a62461bcd02815260040161044290611660565b6000818152600760205260408120905b8154811015610d88576000826000018281548110610d225760e060020a634e487b7102600052603260045260246000fd5b6000918252602080832090910154600160a060020a031680835260018601909152604082205490925090610d568684610695565b90506000610d648284611041565b9050610d71878583610415565b505050508080610d8090611767565b915050610cf1565b506000828152600860205260408120905b8154811015610e30576000826000018281548110610dca5760e060020a634e487b7102600052603260045260246000fd5b6000918252602080832090910154600160a060020a031680835260018601909152604082205490925090610dfe8784610695565b90506000610e0c8284611041565b9050610e19888583610415565b505050508080610e2890611767565b915050610d99565b50505050565b600154600160a060020a03163314610e635760405160e560020a62461bcd02815260040161044290611660565b600092835260066020819052604090932092830191909155600790910155565b600060058281548110610ea95760e060020a634e487b7102600052603260045260246000fd5b90600052602060002001549050919050565b610ec4336105be565b610ee35760405160e560020a62461bcd028152600401610442906115f2565b60008111610f065760405160e560020a62461bcd02815260040161044290611629565b60048190556040517fe808b30f6c0b9358d1aed1985fea28a0ab87699ef66479c9b8991d4834cdc08490610f3b9083906113da565b60405180910390a150565b600154600160a060020a03163314610f735760405160e560020a62461bcd02815260040161044290611660565b600088815260066020819052604082209889556001808a0198909855600289019690965560038801949094556004870192909255600580870191909155949092019190915582549182018355919091527f036b6384b5eca791c62761152d0c79bb0604c104a5fb6f4eb0703f3154bb3db00155565b6000610ff3336105be565b6110125760405160e560020a62461bcd028152600401610442906115f2565b61101b826110f8565b506001919050565b600254600160a060020a031690565b600154600160a060020a031690565b60008061104e83856116f6565b9050838110156110735760405160e560020a62461bcd02815260040161044290611493565b9392505050565b600061107361109184670de0b6b3a7640000611189565b836111d1565b600061107383836040518060400160405280601e81526020017f536166654d6174683a207375627472616374696f6e206f766572666c6f770000815250611213565b6000670de0b6b3a76400006110ee8484611189565b611073919061170e565b600160a060020a0381166111215760405160e560020a62461bcd028152600401610442906114ca565b60008054604051600160a060020a03808516939216917f8be0079c531659141344cd1fd0a4f28419497f9722a3daafe3b4186f6b6457e091a36000805473ffffffffffffffffffffffffffffffffffffffff1916600160a060020a0392909216919091179055565b600082611198575060006106b9565b60006111a48385611731565b9050826111b1858361170e565b146110735760405160e560020a62461bcd02815260040161044290611595565b600061107383836040518060400160405280601a81526020017f536166654d6174683a206469766973696f6e206279207a65726f000000000000815250611250565b6000818484111561123a5760405160e560020a62461bcd02815260040161044291906113e3565b5060006112478486611750565b95945050505050565b600081836112745760405160e560020a62461bcd02815260040161044291906113e3565b506000611247848661170e565b600060208284031215611292578081fd5b81356110738161179b565b6000602082840312156112ae578081fd5b5035919050565b600080604083850312156112c7578081fd5b8235915060208301356112d98161179b565b809150509250929050565b6000806000606084860312156112f8578081fd5b83359250602084013561130a8161179b565b929592945050506040919091013590565b6000806040838503121561132d578182fd5b50508035926020909101359150565b600080600060608486031215611350578283fd5b505081359360208301359350604090920135919050565b600080600080600080600080610100898b031215611383578384fd5b505086359860208801359850604088013597606081013597506080810135965060a0810135955060c0810135945060e0013592509050565b600160a060020a0391909116815260200190565b901515815260200190565b90815260200190565b6000602080835283518082850152825b8181101561140f578581018301518582016040015282016113f3565b818111156114205783604083870101525b50601f01601f1916929092016040019392505050565b60208082526025908201527f6e6577206167656e74206163636f756e7420697320746865207a65726f20616460408201527f6472657373000000000000000000000000000000000000000000000000000000606082015260800190565b6020808252601b908201527f536166654d6174683a206164646974696f6e206f766572666c6f770000000000604082015260600190565b6020808252601d908201527f6e6577206f776e657220697320746865207a65726f2061646472657373000000604082015260600190565b60208082526028908201527f6e657720706c6174666f726d206163636f756e7420697320746865207a65726f60408201527f2061646472657373000000000000000000000000000000000000000000000000606082015260800190565b6020808252601d908201527f6e65772061646d696e20697320746865207a65726f2061646472657373000000604082015260600190565b60208082526021908201527f536166654d6174683a206d756c7469706c69636174696f6e206f766572666c6f60408201527f7700000000000000000000000000000000000000000000000000000000000000606082015260800190565b60208082526017908201527f63616c6c6572206973206e6f7420746865206f776e6572000000000000000000604082015260600190565b60208082526018908201527f5468652066656520726174652063616e6e6f7420626520300000000000000000604082015260600190565b60208082526017908201527f63616c6c6572206973206e6f74207468652061646d696e000000000000000000604082015260600190565b918252602082015260400190565b93845260208401929092526040830152606082015260800190565b978852602088019690965260408701949094526060860192909252608085015260a084015260c083015260e08201526101000190565b6000821982111561170957611709611782565b500190565b60008261172c5760e060020a634e487b710281526012600452602481fd5b500490565b600081600019048311821515161561174b5761174b611782565b500290565b60008282101561176257611762611782565b500390565b600060001982141561177b5761177b611782565b5060010190565b60e060020a634e487b7102600052601160045260246000fd5b600160a060020a03811681146117b057600080fd5b5056fea264697066735822122062d5105389eb6a5b021b7516bc364ad4133eb5828ef40334a0390f55e6d1cfc964736f6c63430008000033",
  "immutableReferences": {},
  "source": "// SPDX-License-Identifier: GPL-3.0\n\npragma solidity >=0.5.16 <0.9.0;\n\nimport \"./SafeMath.sol\";\nimport \"./Ownable.sol\";\n\ncontract GameStorage is Ownable {\n    using SafeMath for uint256;\n\n    /*\n     * @notice Indicator that this is a Storage contract (for inspection)\n     */\n    bool internal _isStorage = true;\n\n    /*\n     * @notice Administrator for this contract\n     */\n    address internal _admin;\n\n    /*\n     * @notice Agency fee address\n     */\n    address payable internal _agent;\n\n    /*\n     * @notice Platform fee address\n     */\n    address payable internal _platform;\n\n    /*\n     * @notice Agency fee rate\n     */\n    uint internal _agentFeeRate;\n\n    struct Game {\n        uint name;\n        uint startTime;\n        uint endTime;\n        uint minAmount;\n        uint maxAmount;\n        uint feeRate;\n        uint status;\n        uint result;\n    }\n\n    struct Vote {\n        address [] voters;\n        mapping(address => uint) votes;\n        uint voteAmount;\n    }\n\n    /*\n     * @notice All game hash collection (not repeated)\n     */\n    bytes32 [] internal _gameList;\n\n    /*\n     * @notice Game hash and game mapping\n     */\n    mapping(bytes32 => Game) internal _games;\n\n    /*\n     * @notice Investment mapping of hash and game option 1\n     */\n    mapping(bytes32 => Vote) internal _option1;\n\n    /*\n     * @notice Investment mapping of hash and game option 2\n     */\n    mapping(bytes32 => Vote) internal _option2;\n\n    /*\n     * @notice The mapping between users and the amount won by users in a game\n     */\n    mapping(bytes32 => mapping(address => uint)) internal _balances;\n\n\n\n\n    /**\n     * @notice Event emitted when set admin account\n     */\n    event AdminSet(address indexed previousAdmin, address indexed newAdmin);\n\n    /**\n     * @notice Event emitted when set agent fee account\n     */\n    event AgentAccountSet(address indexed previousAgent, address indexed newAgent);\n\n    /**\n     * @notice Event emitted when set platform fee account\n     */\n    event PlatformAccountSet(address indexed previousPlatform, address indexed newPlatform);\n\n    /**\n     * @notice Event emitted when set agent fee rate\n     */\n    event AgentRateSet(uint rate);\n\n\n    constructor(){\n    }\n\n    modifier onlyAdmin(){\n        require(msg.sender == _admin, \"caller is not the admin\");\n        _;\n    }\n\n    /**\n     * @notice Returns whether the current contract is a storage contract for verification\n     */\n    function isStorage() public view returns (bool){\n        return _isStorage;\n    }\n\n\n    // ============================== Ownable functions ==============================\n    /**\n     * @notice The contract owner sets up a new administrator (game contract)\n     * @param newAdmin Game contract address\n     */\n    function setAdmin(address newAdmin) public onlyOwner {\n        /* Check if admin is a non-zero address */\n        require(newAdmin != address(0), \"new admin is the zero address\");\n\n        /* Update admin to new admin */\n        _admin = newAdmin;\n\n        /* Emit an AdminSet event */\n        emit AdminSet(_admin, newAdmin);\n    }\n\n    /**\n     * @notice Return the admin contract address\n     */\n    function admin() public view returns (address){\n        return _admin;\n    }\n\n    // agent account\n    /**\n     * @notice Set the agent's receiving fee address\n     * @param newAgent Agent address of payable\n     */\n    function setAgentAccount(address payable newAgent) public onlyOwner {\n        /* Check if newAgent  is a non-zero address */\n        require(newAgent != address(0), \"new agent account is the zero address\");\n\n        /* Update agent to new agent */\n        _agent = newAgent;\n\n        /* Emit an AgentAccountSet event */\n        emit AgentAccountSet(_agent, newAgent);\n    }\n\n    /**\n     * @notice Return the agent fee address\n     */\n    function agent() public view returns (address){\n        return _agent;\n    }\n\n    /**\n     * @notice Set the platform receiving fee address\n     * @param newPlatform Platform address of payable\n     */\n    function setPlatformAccount(address payable newPlatform) public onlyOwner {\n        /* Check if newPlatform  is a non-zero address */\n        require(newPlatform != address(0), \"new platform account is the zero address\");\n\n        /* Update platform to new platform */\n        _platform = newPlatform;\n\n        /* Emit a PlatformAccountSet event */\n        emit PlatformAccountSet(_platform, newPlatform);\n    }\n\n    /**\n     * @notice Return the platform fee address\n     */\n    function platform() public view returns (address){\n        return _platform;\n    }\n\n    /**\n     * @notice Set the agency fee collection ratio\n     * @param newAgentFeeRate Agency fee ratio\n     */\n    function setAgentFeeRate(uint newAgentFeeRate) public onlyOwner {\n        /* Check if fee rate is 0 */\n        require(newAgentFeeRate > 0, \"The fee rate cannot be 0\");\n\n        /* Update agentFeeRate to new agentFeeRate */\n        _agentFeeRate = newAgentFeeRate;\n\n        /* Emit an AgentRateSet event */\n        emit AgentRateSet(newAgentFeeRate);\n    }\n\n    /**\n     * @notice Return the agency fee collection ratio\n     */\n    function agentFeeRate() public view returns (uint){\n        return _agentFeeRate;\n    }\n\n    // ============================== Storage functions ==============================\n\n    /**\n     * @notice Add a new game to game mappings\n     * @param gameHash The game hash\n     * @param name The game name\n     * @param startTime The game start time\n     * @param endTime The game end time\n     * @param minAmount The game bet minimum amount\n     * @param maxAmount The game betting maximum amount\n     * @param feeRate The fee rate charged by the platform and the agent after the game is over\n     * @param status The game state\n     */\n    function createGame(bytes32 gameHash, uint name, uint startTime, uint endTime, uint minAmount, uint maxAmount, uint feeRate, uint status) public onlyAdmin {\n        /* Write the game info into _games mappings storage */\n        Game storage game = _games[gameHash];\n        game.name = name;\n        game.startTime = startTime;\n        game.endTime = endTime;\n        game.minAmount = minAmount;\n        game.maxAmount = maxAmount;\n        game.feeRate = feeRate;\n        game.status = status;\n\n        /* Write the game hash into _gameList array storage */\n        _gameList.push(gameHash);\n    }\n\n    /**\n     * @notice Set game state and results\n     * @param gameHash The game hash\n     * @param status The game new state\n     * @param result The game new result\n     */\n    function setGameResult(bytes32 gameHash, uint status, uint result) public onlyAdmin {\n        /* Write the game status and result into storage */\n        Game storage game = _games[gameHash];\n        game.status = status;\n        game.result = result;\n    }\n\n    /**\n     * @notice Return the game info by game hash\n     * @param gameHash The game hash\n     */\n    function getGame(bytes32 gameHash) public view returns (uint name, uint startTime, uint endTime, uint minAmount, uint maxAmount, uint feeRate, uint status, uint result){\n        Game memory game = _games[gameHash];\n        name = game.name;\n        startTime = game.startTime;\n        endTime = game.endTime;\n        minAmount = game.minAmount;\n        maxAmount = game.maxAmount;\n        feeRate = game.feeRate;\n        status = game.status;\n        result = game.result;\n    }\n\n    /**\n     * @notice Return the game hash by game hash index\n     * @param index The game hash index\n     */\n    function getGameHash(uint index) public view returns (bytes32 gameHash) {\n        return _gameList[index];\n    }\n\n    /**\n     * @notice Returns the number of all games that have been created\n     */\n    function getGameLength() public view returns (uint length){\n        return _gameList.length;\n    }\n\n    /**\n     * @notice Update betting information when player bets on game option 1\n     * @param gameHash The betting game hash\n     * @param voter The game payer\n     * @param amount The game bet amount\n     */\n    function setOption1(bytes32 gameHash, address voter, uint amount) public onlyAdmin {\n        /* Update player's stake and total stake in game option 1 */\n        Vote storage vote = _option1[gameHash];\n        vote.votes[voter] = vote.votes[voter].add(amount);\n        vote.voteAmount = vote.voteAmount.add(amount);\n\n        /* Check voter is unique */\n        bool isExists = false;\n        for (uint i = 0; i < vote.voters.length; i++) {\n            if (vote.voters[i] == voter) {\n                isExists = true;\n                break;\n            }\n        }\n        if (!isExists) {\n            vote.voters.push(voter);\n        }\n\n    }\n\n    /**\n     * @notice Update betting information when player bets on game option 2\n     * @param gameHash The betting game hash\n     * @param voter The game payer\n     * @param amount The game bet amount\n     */\n    function setOption2(bytes32 gameHash, address voter, uint amount) public onlyAdmin {\n        /* Update player's stake and total stake in game option 2 */\n        Vote storage vote = _option2[gameHash];\n        vote.votes[voter] = vote.votes[voter].add(amount);\n        vote.voteAmount = vote.voteAmount.add(amount);\n\n        //Check voter is unique\n        bool isExists = false;\n        for (uint i = 0; i < vote.voters.length; i++) {\n            if (vote.voters[i] == voter) {\n                isExists = true;\n                break;\n            }\n        }\n        if (!isExists) {\n            vote.voters.push(voter);\n        }\n    }\n\n    /**\n     * @notice Returns the total bet and investment total for the game\n     * @param gameHash The betting game hash\n     */\n    function getGameVote(bytes32 gameHash) public view returns (uint option1Amount, uint option2Amount, uint option1Count, uint option2Count){\n        Vote storage option1 = _option1[gameHash];\n        Vote storage option2 = _option2[gameHash];\n\n        option1Amount = option1.voteAmount;\n        option2Amount = option2.voteAmount;\n\n        option1Count = option1.voters.length;\n        option2Count = option2.voters.length;\n    }\n\n    /**\n     * @notice Returns the total amount bet by the user for option 1 and option 2 in the game\n     * @param gameHash The betting game hash\n     * @param account User betting address\n     */\n    function getPayerVote(bytes32 gameHash, address account) public view returns (uint option1Amount, uint option2Amount){\n        Vote storage option1 = _option1[gameHash];\n        Vote storage option2 = _option2[gameHash];\n\n        option1Amount = option1.votes[account];\n        option2Amount = option2.votes[account];\n    }\n\n    /**\n     * @notice Set the amount the user will win in the game\n     * @param gameHash The betting game hash\n     * @param account User betting address\n     * @param newBalance User balance\n     */\n    function setBalance(bytes32 gameHash, address account, uint newBalance) public onlyAdmin {\n        _balances[gameHash][account] = newBalance;\n    }\n\n    /**\n     * @notice Returns the amount the user has won in the game\n     * @param gameHash The betting game hash\n     * @param account User betting address\n     */\n    function getBalance(bytes32 gameHash, address account) public view returns (uint){\n        return _balances[gameHash][account];\n    }\n\n    /**\n     * @notice Liquidation of Option 1 betting users and winning amounts after game result submission\n     * @param gameHash The betting game hash\n     * @param fee Platform and agency fees\n     */\n    function liquidateOption1(bytes32 gameHash, uint fee) public onlyAdmin {\n\n        Vote storage vote = _option1[gameHash];\n\n        (uint option1Amount, uint option2Amount,,) = getGameVote(gameHash);\n\n        for (uint256 i = 0; i < vote.voters.length; i++) {\n            //Get the vote winner\n            address voter = vote.voters[i];\n\n            //Get the investment amount of the bet winner\n            uint voteAmount = vote.votes[voter];\n\n            uint rate = voteAmount.wdiv(option1Amount);\n\n            uint loseTotalAmount = option2Amount.sub(fee);\n\n            uint winAmount = rate.wmul(loseTotalAmount).add(voteAmount);\n\n            uint balance = getBalance(gameHash, voter);\n\n            uint newBalance = balance.add(winAmount);\n\n            setBalance(gameHash, voter, newBalance);\n        }\n    }\n\n    /**\n     * @notice Liquidation of Option 2 betting users and winning amounts after game result submission\n     * @param gameHash The betting game hash\n     * @param fee Platform and agency fees\n     */\n    function liquidateOption2(bytes32 gameHash, uint fee) public onlyAdmin {\n        Vote storage vote = _option2[gameHash];\n\n        (uint option1Amount, uint option2Amount,,) = getGameVote(gameHash);\n\n        for (uint256 i = 0; i < vote.voters.length; i++) {\n            //Get the vote winner\n            address voter = vote.voters[i];\n\n            //Get the investment amount of the bet winner\n            uint voteAmount = vote.votes[voter];\n\n            uint rate = voteAmount.wdiv(option2Amount);\n\n            uint loseTotalAmount = option1Amount.sub(fee);\n\n            uint winAmount = rate.wmul(loseTotalAmount).add(voteAmount);\n\n            uint balance = getBalance(gameHash, voter);\n\n            uint newBalance = balance.add(winAmount);\n\n            setBalance(gameHash, voter, newBalance);\n        }\n    }\n\n    /**\n     * @notice Cancel games and liquidate user bets\n     * @param gameHash The betting game hash\n     */\n    function cancel(bytes32 gameHash) public onlyAdmin {\n        Vote storage vote1 = _option1[gameHash];\n\n        // liquidate option1\n        for (uint256 i = 0; i < vote1.voters.length; i++) {\n            address voter = vote1.voters[i];\n            uint voteAmount = vote1.votes[voter];\n            uint balance = getBalance(gameHash, voter);\n            uint newBalance = balance.add(voteAmount);\n            setBalance(gameHash, voter, newBalance);\n        }\n\n        // liquidate option2\n        Vote storage vote2 = _option2[gameHash];\n        for (uint256 i = 0; i < vote2.voters.length; i++) {\n            address voter = vote2.voters[i];\n            uint voteAmount = vote2.votes[voter];\n            uint balance = getBalance(gameHash, voter);\n            uint newBalance = balance.add(voteAmount);\n            setBalance(gameHash, voter, newBalance);\n        }\n    }\n}\n",
  "sourcePath": "/Users/drunken/work/kpc/contracts/GameStorage.sol",
  "compiler": {
    "name": "solc",
    "version": "0.8.0+commit.c7dfd78e.Emscripten.clang"
  },
  "schemaVersion": "3.4.1",
  "updatedAt": "2022-04-08T07:10:56.550Z",
  "devdoc": {
    "kind": "dev",
    "methods": {
      "cancel(bytes32)": {
        "params": {
          "gameHash": "The betting game hash"
        }
      },
      "createGame(bytes32,uint256,uint256,uint256,uint256,uint256,uint256,uint256)": {
        "params": {
          "endTime": "The game end time",
          "feeRate": "The fee rate charged by the platform and the agent after the game is over",
          "gameHash": "The game hash",
          "maxAmount": "The game betting maximum amount",
          "minAmount": "The game bet minimum amount",
          "name": "The game name",
          "startTime": "The game start time",
          "status": "The game state"
        }
      },
      "getBalance(bytes32,address)": {
        "params": {
          "account": "User betting address",
          "gameHash": "The betting game hash"
        }
      },
      "getGame(bytes32)": {
        "params": {
          "gameHash": "The game hash"
        }
      },
      "getGameHash(uint256)": {
        "params": {
          "index": "The game hash index"
        }
      },
      "getGameVote(bytes32)": {
        "params": {
          "gameHash": "The betting game hash"
        }
      },
      "getPayerVote(bytes32,address)": {
        "params": {
          "account": "User betting address",
          "gameHash": "The betting game hash"
        }
      },
      "liquidateOption1(bytes32,uint256)": {
        "params": {
          "fee": "Platform and agency fees",
          "gameHash": "The betting game hash"
        }
      },
      "liquidateOption2(bytes32,uint256)": {
        "params": {
          "fee": "Platform and agency fees",
          "gameHash": "The betting game hash"
        }
      },
      "setAdmin(address)": {
        "params": {
          "newAdmin": "Game contract address"
        }
      },
      "setAgentAccount(address)": {
        "params": {
          "newAgent": "Agent address of payable"
        }
      },
      "setAgentFeeRate(uint256)": {
        "params": {
          "newAgentFeeRate": "Agency fee ratio"
        }
      },
      "setBalance(bytes32,address,uint256)": {
        "params": {
          "account": "User betting address",
          "gameHash": "The betting game hash",
          "newBalance": "User balance"
        }
      },
      "setGameResult(bytes32,uint256,uint256)": {
        "params": {
          "gameHash": "The game hash",
          "result": "The game new result",
          "status": "The game new state"
        }
      },
      "setOption1(bytes32,address,uint256)": {
        "params": {
          "amount": "The game bet amount",
          "gameHash": "The betting game hash",
          "voter": "The game payer"
        }
      },
      "setOption2(bytes32,address,uint256)": {
        "params": {
          "amount": "The game bet amount",
          "gameHash": "The betting game hash",
          "voter": "The game payer"
        }
      },
      "setPlatformAccount(address)": {
        "params": {
          "newPlatform": "Platform address of payable"
        }
      }
    },
    "version": 1
  },
  "userdoc": {
    "events": {
      "AdminSet(address,address)": {
        "notice": "Event emitted when set admin account"
      },
      "AgentAccountSet(address,address)": {
        "notice": "Event emitted when set agent fee account"
      },
      "AgentRateSet(uint256)": {
        "notice": "Event emitted when set agent fee rate"
      },
      "PlatformAccountSet(address,address)": {
        "notice": "Event emitted when set platform fee account"
      }
    },
    "kind": "user",
    "methods": {
      "admin()": {
        "notice": "Return the admin contract address"
      },
      "agent()": {
        "notice": "Return the agent fee address"
      },
      "agentFeeRate()": {
        "notice": "Return the agency fee collection ratio"
      },
      "cancel(bytes32)": {
        "notice": "Cancel games and liquidate user bets"
      },
      "createGame(bytes32,uint256,uint256,uint256,uint256,uint256,uint256,uint256)": {
        "notice": "Add a new game to game mappings"
      },
      "getBalance(bytes32,address)": {
        "notice": "Returns the amount the user has won in the game"
      },
      "getGame(bytes32)": {
        "notice": "Return the game info by game hash"
      },
      "getGameHash(uint256)": {
        "notice": "Return the game hash by game hash index"
      },
      "getGameLength()": {
        "notice": "Returns the number of all games that have been created"
      },
      "getGameVote(bytes32)": {
        "notice": "Returns the total bet and investment total for the game"
      },
      "getPayerVote(bytes32,address)": {
        "notice": "Returns the total amount bet by the user for option 1 and option 2 in the game"
      },
      "isStorage()": {
        "notice": "Returns whether the current contract is a storage contract for verification"
      },
      "liquidateOption1(bytes32,uint256)": {
        "notice": "Liquidation of Option 1 betting users and winning amounts after game result submission"
      },
      "liquidateOption2(bytes32,uint256)": {
        "notice": "Liquidation of Option 2 betting users and winning amounts after game result submission"
      },
      "platform()": {
        "notice": "Return the platform fee address"
      },
      "setAdmin(address)": {
        "notice": "The contract owner sets up a new administrator (game contract)"
      },
      "setAgentAccount(address)": {
        "notice": "Set the agent's receiving fee address"
      },
      "setAgentFeeRate(uint256)": {
        "notice": "Set the agency fee collection ratio"
      },
      "setBalance(bytes32,address,uint256)": {
        "notice": "Set the amount the user will win in the game"
      },
      "setGameResult(bytes32,uint256,uint256)": {
        "notice": "Set game state and results"
      },
      "setOption1(bytes32,address,uint256)": {
        "notice": "Update betting information when player bets on game option 1"
      },
      "setOption2(bytes32,address,uint256)": {
        "notice": "Update betting information when player bets on game option 2"
      },
      "setPlatformAccount(address)": {
        "notice": "Set the platform receiving fee address"
      }
    },
    "version": 1
  }
}