{
  "contractName": "Game",
  "abi": [
    {
      "inputs": [
        {
          "internalType": "address",
          "name": "tokenContract_",
          "type": "address"
        },
        {
          "internalType": "address",
          "name": "storage_",
          "type": "address"
        },
        {
          "internalType": "address",
          "name": "proxyFee_",
          "type": "address"
        },
        {
          "internalType": "address",
          "name": "relationship_",
          "type": "address"
        },
        {
          "internalType": "address",
          "name": "proxy_",
          "type": "address"
        }
      ],
      "stateMutability": "nonpayable",
      "type": "constructor"
    },
    {
      "anonymous": false,
      "inputs": [
        {
          "indexed": false,
          "internalType": "bytes32",
          "name": "gameHash",
          "type": "bytes32"
        },
        {
          "indexed": false,
          "internalType": "uint256",
          "name": "gameName",
          "type": "uint256"
        }
      ],
      "name": "GameCancelled",
      "type": "event"
    },
    {
      "anonymous": false,
      "inputs": [
        {
          "indexed": false,
          "internalType": "bytes32",
          "name": "gameHash",
          "type": "bytes32"
        },
        {
          "indexed": false,
          "internalType": "uint256",
          "name": "gameName",
          "type": "uint256"
        },
        {
          "indexed": false,
          "internalType": "uint256",
          "name": "status",
          "type": "uint256"
        },
        {
          "indexed": false,
          "internalType": "uint256",
          "name": "feeRate",
          "type": "uint256"
        }
      ],
      "name": "GameCreated",
      "type": "event"
    },
    {
      "anonymous": false,
      "inputs": [
        {
          "indexed": false,
          "internalType": "bytes32",
          "name": "gameHash",
          "type": "bytes32"
        },
        {
          "indexed": false,
          "internalType": "uint256",
          "name": "gameName",
          "type": "uint256"
        },
        {
          "indexed": false,
          "internalType": "uint256",
          "name": "fee",
          "type": "uint256"
        },
        {
          "indexed": false,
          "internalType": "uint256",
          "name": "agentFee",
          "type": "uint256"
        },
        {
          "indexed": false,
          "internalType": "uint256",
          "name": "platformFee",
          "type": "uint256"
        },
        {
          "indexed": false,
          "internalType": "uint256",
          "name": "option1Amount",
          "type": "uint256"
        },
        {
          "indexed": false,
          "internalType": "uint256",
          "name": "option2Amount",
          "type": "uint256"
        },
        {
          "indexed": false,
          "internalType": "uint256",
          "name": "status",
          "type": "uint256"
        },
        {
          "indexed": false,
          "internalType": "uint256",
          "name": "result",
          "type": "uint256"
        }
      ],
      "name": "GameResultSubmitted",
      "type": "event"
    },
    {
      "anonymous": false,
      "inputs": [
        {
          "indexed": false,
          "internalType": "bytes32",
          "name": "gameHash",
          "type": "bytes32"
        },
        {
          "indexed": false,
          "internalType": "uint256",
          "name": "gameName",
          "type": "uint256"
        },
        {
          "indexed": false,
          "internalType": "address",
          "name": "voter",
          "type": "address"
        },
        {
          "indexed": false,
          "internalType": "uint256",
          "name": "amount",
          "type": "uint256"
        },
        {
          "indexed": false,
          "internalType": "uint256",
          "name": "option",
          "type": "uint256"
        },
        {
          "indexed": false,
          "internalType": "uint256",
          "name": "option1Amount",
          "type": "uint256"
        },
        {
          "indexed": false,
          "internalType": "uint256",
          "name": "option2Amount",
          "type": "uint256"
        }
      ],
      "name": "PayerVote",
      "type": "event"
    },
    {
      "anonymous": false,
      "inputs": [
        {
          "indexed": false,
          "internalType": "bytes32",
          "name": "gameHash",
          "type": "bytes32"
        },
        {
          "indexed": false,
          "internalType": "address",
          "name": "account",
          "type": "address"
        },
        {
          "indexed": false,
          "internalType": "uint256",
          "name": "amount",
          "type": "uint256"
        },
        {
          "indexed": false,
          "internalType": "uint256",
          "name": "balance",
          "type": "uint256"
        }
      ],
      "name": "Withdraw",
      "type": "event"
    },
    {
      "inputs": [],
      "name": "_storage",
      "outputs": [
        {
          "internalType": "contract IGameStorage",
          "name": "",
          "type": "address"
        }
      ],
      "stateMutability": "view",
      "type": "function"
    },
    {
      "inputs": [],
      "name": "proxy",
      "outputs": [
        {
          "internalType": "address",
          "name": "",
          "type": "address"
        }
      ],
      "stateMutability": "view",
      "type": "function"
    },
    {
      "inputs": [],
      "name": "proxyFee",
      "outputs": [
        {
          "internalType": "contract IProxyFee",
          "name": "",
          "type": "address"
        }
      ],
      "stateMutability": "view",
      "type": "function"
    },
    {
      "inputs": [],
      "name": "relationship",
      "outputs": [
        {
          "internalType": "contract IRelationship",
          "name": "",
          "type": "address"
        }
      ],
      "stateMutability": "view",
      "type": "function"
    },
    {
      "inputs": [],
      "name": "tokenContract",
      "outputs": [
        {
          "internalType": "address",
          "name": "",
          "type": "address"
        }
      ],
      "stateMutability": "view",
      "type": "function"
    },
    {
      "inputs": [
        {
          "internalType": "uint256",
          "name": "name",
          "type": "uint256"
        },
        {
          "internalType": "uint256",
          "name": "startTime",
          "type": "uint256"
        },
        {
          "internalType": "uint256",
          "name": "endTime",
          "type": "uint256"
        },
        {
          "internalType": "uint256",
          "name": "minAmount",
          "type": "uint256"
        },
        {
          "internalType": "uint256",
          "name": "maxAmount",
          "type": "uint256"
        },
        {
          "internalType": "uint256",
          "name": "feeRate",
          "type": "uint256"
        }
      ],
      "name": "newGame",
      "outputs": [
        {
          "internalType": "bytes32",
          "name": "gameHash",
          "type": "bytes32"
        }
      ],
      "stateMutability": "nonpayable",
      "type": "function"
    },
    {
      "inputs": [
        {
          "internalType": "bytes32",
          "name": "gameHash",
          "type": "bytes32"
        }
      ],
      "name": "cancel",
      "outputs": [],
      "stateMutability": "nonpayable",
      "type": "function"
    },
    {
      "inputs": [
        {
          "internalType": "bytes32",
          "name": "gameHash",
          "type": "bytes32"
        },
        {
          "internalType": "uint256",
          "name": "result",
          "type": "uint256"
        }
      ],
      "name": "submitGameResult",
      "outputs": [],
      "stateMutability": "nonpayable",
      "type": "function"
    },
    {
      "inputs": [
        {
          "internalType": "uint256",
          "name": "amount",
          "type": "uint256"
        },
        {
          "internalType": "uint256",
          "name": "feeRate",
          "type": "uint256"
        }
      ],
      "name": "calculateFee",
      "outputs": [
        {
          "internalType": "uint256",
          "name": "fee",
          "type": "uint256"
        },
        {
          "internalType": "uint256",
          "name": "agentFee",
          "type": "uint256"
        },
        {
          "internalType": "uint256",
          "name": "platformFee",
          "type": "uint256"
        }
      ],
      "stateMutability": "view",
      "type": "function"
    },
    {
      "inputs": [
        {
          "internalType": "uint256",
          "name": "name",
          "type": "uint256"
        }
      ],
      "name": "getGameHash",
      "outputs": [
        {
          "internalType": "bytes32",
          "name": "",
          "type": "bytes32"
        }
      ],
      "stateMutability": "view",
      "type": "function"
    },
    {
      "inputs": [
        {
          "internalType": "bytes32",
          "name": "gameHash",
          "type": "bytes32"
        },
        {
          "internalType": "uint256",
          "name": "amount",
          "type": "uint256"
        },
        {
          "internalType": "uint256",
          "name": "option",
          "type": "uint256"
        }
      ],
      "name": "play",
      "outputs": [],
      "stateMutability": "nonpayable",
      "type": "function"
    },
    {
      "inputs": [
        {
          "internalType": "bytes32",
          "name": "gameHash",
          "type": "bytes32"
        }
      ],
      "name": "withdraw",
      "outputs": [
        {
          "internalType": "uint256",
          "name": "amount",
          "type": "uint256"
        }
      ],
      "stateMutability": "nonpayable",
      "type": "function"
    }
  ],
  "bytecode": "0x60806040523480156200001157600080fd5b506040516200284c3803806200284c833981016040819052620000349162000268565b60008054600160a060020a0319908116600160a060020a0388811691909117909255600280548216878416179055600380548216868416179055600480548216858416178082556001805490931685851617928390556040517f2971038800000000000000000000000000000000000000000000000000000000815290841693632971038893620000c9939116910162000300565b602060405180830381600087803b158015620000e457600080fd5b505af1158015620000f9573d6000803e3d6000fd5b505050506040513d601f19601f820116820180604052508101906200011f9190620002d7565b62000161576040517f08c379a000000000000000000000000000000000000000000000000000000000815260040162000158906200034b565b60405180910390fd5b600260009054906101000a9004600160a060020a0316600160a060020a031663afc55a406040518163ffffffff167c010000000000000000000000000000000000000000000000000000000002815260040160206040518083038186803b158015620001cc57600080fd5b505afa158015620001e1573d6000803e3d6000fd5b505050506040513d601f19601f82011682018060405250810190620002079190620002d7565b62000240576040517f08c379a0000000000000000000000000000000000000000000000000000000008152600401620001589062000314565b505050505062000382565b8051600160a060020a03811681146200026357600080fd5b919050565b600080600080600060a0868803121562000280578081fd5b6200028b866200024b565b94506200029b602087016200024b565b9350620002ab604087016200024b565b9250620002bb606087016200024b565b9150620002cb608087016200024b565b90509295509295909350565b600060208284031215620002e9578081fd5b81518015158114620002f9578182fd5b9392505050565b600160a060020a0391909116815260200190565b60208082526013908201527f436865636b2073746f72616765206572726f7200000000000000000000000000604082015260600190565b60208082526011908201527f436865636b2070726f7879206572726f72000000000000000000000000000000604082015260600190565b6124ba80620003926000396000f3fe608060405234801561001057600080fd5b50600436106100b85760003560e060020a90048063a76df62a11610075578063a76df62a1461014d578063c07a4b2214610155578063c3fb90d614610168578063c4d252f514610170578063d1988b6a14610183578063ec55688914610196576100b8565b806334e73122146100bd57806345b08a96146100e857806355a373d6146100fd57806382007dd6146101055780638e19899e1461012557806390678ee714610138575b600080fd5b6100d06100cb366004611a85565b61019e565b6040516100df93929190611ce6565b60405180910390f35b6100f061025b565b6040516100df9190611bd1565b6100f061026a565b610118610113366004611aef565b610279565b6040516100df9190611c3c565b610118610133366004611a09565b6105b3565b61014b610146366004611a5a565b610741565b005b6100f0610ba5565b61014b610163366004611a39565b610bb4565b6100f061116b565b61014b61017e366004611a09565b61117a565b610118610191366004611a09565b6113d6565b6100f061144d565b600080600080600260009054906101000a9004600160a060020a0316600160a060020a031663086365946040518163ffffffff1660e060020a02815260040160206040518083038186803b1580156101f557600080fd5b505afa158015610209573d6000803e3d6000fd5b505050506040513d601f19601f8201168201806040525081019061022d9190611a21565b9050610239868661145c565b9350610245848261145c565b92506102518484611482565b9150509250925092565b600454600160a060020a031681565b600054600160a060020a031681565b600154600090600160a060020a031633146102b25760405160e560020a62461bcd0281526004016102a99061225b565b60405180910390fd5b428610156102d55760405160e560020a62461bcd0281526004016102a990612292565b8585116102f75760405160e560020a62461bcd0281526004016102a9906122ef565b4285116103195760405160e560020a62461bcd0281526004016102a990611e64565b83831161033b5760405160e560020a62461bcd0281526004016102a990612159565b60023088604051602001610350929190611b8d565b60408051601f198184030181529082905261036a91611bb5565b602060405180830381855afa158015610387573d6000803e3d6000fd5b5050506040513d601f19601f820116820180604052508101906103aa9190611a21565b90506103b461185c565b60025460405160e060020a6373931bbf028152600160a060020a03909116906373931bbf906103e7908590600401611c3c565b6101006040518083038186803b15801561040057600080fd5b505afa158015610414573d6000803e3d6000fd5b505050506040513d601f19601f820116820180604052508101906104389190611b31565b5060a0880152608087015260608601526040850152602084015250600090508160a001511461047c5760405160e560020a62461bcd0281526004016102a990611df6565b600254600160a060020a031663f066559c838a8a8a8a8a8a60016040518963ffffffff1660e060020a0281526004016104bc989796959493929190611d17565b600060405180830381600087803b1580156104d657600080fd5b505af11580156104ea573d6000803e3d6000fd5b50506003546040517f3313ff00000000000000000000000000000000000000000000000000000000008152600160a060020a039091169250633313ff009150610537903390600401611bd1565b600060405180830381600087803b15801561055157600080fd5b505af1158015610565573d6000803e3d6000fd5b50506040517f69554c51258fba63861cb6e7fad1f0fbb8bf90eae0e8fbcb35567bb4c676c1c292506105a0915084908b906001908890611cfc565b60405180910390a1509695505050505050565b6002546040517f530e931c000000000000000000000000000000000000000000000000000000008152600091600160a060020a03169063530e931c906105ff9085903390600401611c45565b60206040518083038186803b15801561061757600080fd5b505afa15801561062b573d6000803e3d6000fd5b505050506040513d601f19601f8201168201806040525081019061064f9190611a21565b9050600081116106745760405160e560020a62461bcd0281526004016102a990611f09565b61067e33826114c4565b6002546040517f071b267c000000000000000000000000000000000000000000000000000000008152600160a060020a039091169063071b267c906106cc9085903390600090600401611c5c565b600060405180830381600087803b1580156106e657600080fd5b505af11580156106fa573d6000803e3d6000fd5b505050507fb66d4229fe9107b32cd9afe73d39ebf3d84f2f8c9dda72fedf450fbd02f7018182338360006040516107349493929190611c7b565b60405180910390a1919050565b610749611899565b600480546001546040517f06a6f931000000000000000000000000000000000000000000000000000000008152600160a060020a03928316936306a6f9319361079793339391169101611be5565b602060405180830381600087803b1580156107b157600080fd5b505af11580156107c5573d6000803e3d6000fd5b505050506040513d601f19601f820116820180604052508101906107e991906119e9565b151580825261080d5760405160e560020a62461bcd0281526004016102a990611fae565b60025460405160e060020a6373931bbf028152600160a060020a03909116906373931bbf90610840908790600401611c3c565b6101006040518083038186803b15801561085957600080fd5b505afa15801561086d573d6000803e3d6000fd5b505050506040513d601f19601f820116820180604052508101906108919190611b31565b5060e088015260c087015260a0860152608085015260608401526040830152602082015260018160e00151146108dc5760405160e560020a62461bcd0281526004016102a990611dbf565b806040015142116109025760405160e560020a62461bcd0281526004016102a990611f40565b806060015142106109285760405160e560020a62461bcd0281526004016102a990612068565b806080015183101561094f5760405160e560020a62461bcd0281526004016102a9906120fc565b8060a001518311156109765760405160e560020a62461bcd0281526004016102a99061209f565b60018214806109855750600282145b6109a45760405160e560020a62461bcd0281526004016102a990611e9b565b60006109b03385611598565b90506001831415610a3f576002546040517f7f2e4cb5000000000000000000000000000000000000000000000000000000008152600160a060020a0390911690637f2e4cb590610a0890889033908690600401611c5c565b600060405180830381600087803b158015610a2257600080fd5b505af1158015610a36573d6000803e3d6000fd5b50505050610ab0565b6002831415610a95576002546040517f2978c76c000000000000000000000000000000000000000000000000000000008152600160a060020a0390911690632978c76c90610a0890889033908690600401611c5c565b60405160e560020a62461bcd0281526004016102a990611e9b565b6002546040517f028e792e000000000000000000000000000000000000000000000000000000008152600160a060020a039091169063028e792e90610afb9088903390600401611c45565b604080518083038186803b158015610b1257600080fd5b505afa158015610b26573d6000803e3d6000fd5b505050506040513d601f19601f82011682018060405250810190610b4a9190611a97565b6101408401819052610120840182905260208401516040517fd673958d9fdffd45587bae4b0ac6f4496db580d117f55538a0e3cea5640b7ed993610b96938a9392339288928b92611cad565b60405180910390a15050505050565b600354600160a060020a031681565b600154600160a060020a03163314610be15760405160e560020a62461bcd0281526004016102a99061225b565b610be96118f5565b60025460405160e060020a6373931bbf028152600160a060020a03909116906373931bbf90610c1c908690600401611c3c565b6101006040518083038186803b158015610c3557600080fd5b505afa158015610c49573d6000803e3d6000fd5b505050506040513d601f19601f82011682018060405250810190610c6d9190611b31565b5060c088015260a0870152608086015260608501526040840181905260208401919091529082524211610cb55760405160e560020a62461bcd0281526004016102a990612224565b60018160c0015114610cdc5760405160e560020a62461bcd0281526004016102a99061200b565b6001821480610ceb5750600282145b610d0a5760405160e560020a62461bcd0281526004016102a990611e9b565b6002546040517fc11481c6000000000000000000000000000000000000000000000000000000008152600160a060020a039091169063c11481c690610d53908690600401611c3c565b60806040518083038186803b158015610d6b57600080fd5b505afa158015610d7f573d6000803e3d6000fd5b505050506040513d601f19601f82011682018060405250810190610da39190611aba565b505061010083015260e0820181905215801590610dc557506000816101000151115b610de45760405160e560020a62461bcd0281526004016102a99061235d565b6001821415610e9c57610e008161010001518260a0015161019e565b610160840152610140830152610120820181905260016101808301526002546040517fa508ca55000000000000000000000000000000000000000000000000000000008152600160a060020a039091169163a508ca5591610e65918791600401611c9f565b600060405180830381600087803b158015610e7f57600080fd5b505af1158015610e93573d6000803e3d6000fd5b50505050610f1c565b6002821415610a9557610eb78160e001518260a0015161019e565b610160840152610140830152610120820181905260026101808301819052546040517fbecd1d84000000000000000000000000000000000000000000000000000000008152600160a060020a039091169163becd1d8491610e65918791600401611c9f565b600260009054906101000a9004600160a060020a0316600160a060020a031663f5ff5c766040518163ffffffff1660e060020a02815260040160206040518083038186803b158015610f6d57600080fd5b505afa158015610f81573d6000803e3d6000fd5b505050506040513d601f19601f82011682018060405250810190610fa591906119c2565b600160a060020a039081166101a0830152600254604080517f4bde38c800000000000000000000000000000000000000000000000000000000815290519190921691634bde38c8916004808301926020929190829003018186803b15801561100c57600080fd5b505afa158015611020573d6000803e3d6000fd5b505050506040513d601f19601f8201168201806040525081019061104491906119c2565b600160a060020a03166101c08201526101a081015161014082015161106991906114c4565b61107d816101c001518261016001516114c4565b600280546101808301516040517fcdfb8b0e000000000000000000000000000000000000000000000000000000008152600160a060020a039092169263cdfb8b0e926110ce92889291600401611ce6565b600060405180830381600087803b1580156110e857600080fd5b505af11580156110fc573d6000803e3d6000fd5b5050825161012084015161014085015161016086015160e08701516101008801516101808901516040517f222e3d78124e2ea6d0fc2572222c713dd6c936bcd7b155790c9b250a5a7c36b8995061115e98508c97969594939291600291611d4d565b60405180910390a1505050565b600254600160a060020a031681565b600154600160a060020a031633146111a75760405160e560020a62461bcd0281526004016102a99061225b565b6111af61197d565b60025460405160e060020a6373931bbf028152600160a060020a03909116906373931bbf906111e2908590600401611c3c565b6101006040518083038186803b1580156111fb57600080fd5b505afa15801561120f573d6000803e3d6000fd5b505050506040513d601f19601f820116820180604052508101906112339190611b31565b5060c088015260a087015260808601526060850152604084015260208301528082526112745760405160e560020a62461bcd0281526004016102a990611e2d565b60018160c001511461129b5760405160e560020a62461bcd0281526004016102a9906121ed565b6002546040517fc4d252f5000000000000000000000000000000000000000000000000000000008152600160a060020a039091169063c4d252f5906112e4908590600401611c3c565b600060405180830381600087803b1580156112fe57600080fd5b505af1158015611312573d6000803e3d6000fd5b50506002546040517fcdfb8b0e000000000000000000000000000000000000000000000000000000008152600160a060020a03909116925063cdfb8b0e9150611365908590600390600090600401611ce6565b600060405180830381600087803b15801561137f57600080fd5b505af1158015611393573d6000803e3d6000fd5b505082516040517ff7db38418d99a43121d8a8fcc2275dafc4715ec4ad251cebbebcba1547b0df3c93506113ca9250859190611c9f565b60405180910390a15050565b6000600230836040516020016113ed929190611b8d565b60408051601f198184030181529082905261140791611bb5565b602060405180830381855afa158015611424573d6000803e3d6000fd5b5050506040513d601f19601f820116820180604052508101906114479190611a21565b92915050565b600154600160a060020a031681565b6000670de0b6b3a764000061147184846117d7565b61147b91906123ba565b9392505050565b600061147b83836040518060400160405280601e81526020017f536166654d6174683a207375627472616374696f6e206f766572666c6f77000081525061181f565b6000546040517fa9059cbb000000000000000000000000000000000000000000000000000000008152600160a060020a0390911690819063a9059cbb906115119086908690600401611c23565b600060405180830381600087803b15801561152b57600080fd5b505af115801561153f573d6000803e3d6000fd5b5050505060003d6000811461155b576020811461156557600080fd5b6000199150611571565b60206000803e60005191505b50806115925760405160e560020a62461bcd0281526004016102a990612326565b50505050565b600080546040517f70a08231000000000000000000000000000000000000000000000000000000008152600160a060020a0390911690829082906370a08231906115e6903090600401611bd1565b60206040518083038186803b1580156115fe57600080fd5b505afa158015611612573d6000803e3d6000fd5b505050506040513d601f19601f820116820180604052508101906116369190611a21565b6040517f23b872dd000000000000000000000000000000000000000000000000000000008152909150600160a060020a038316906323b872dd9061168290889030908990600401611bff565b600060405180830381600087803b15801561169c57600080fd5b505af11580156116b0573d6000803e3d6000fd5b5050505060003d600081146116cc57602081146116d657600080fd5b60001991506116e2565b60206000803e60005191505b50806117035760405160e560020a62461bcd0281526004016102a990611ed2565b600080546040517f70a08231000000000000000000000000000000000000000000000000000000008152600160a060020a03909116906370a082319061174d903090600401611bd1565b60206040518083038186803b15801561176557600080fd5b505afa158015611779573d6000803e3d6000fd5b505050506040513d601f19601f8201168201806040525081019061179d9190611a21565b9050828110156117c25760405160e560020a62461bcd0281526004016102a990611f77565b6117cc8382612412565b979650505050505050565b6000826117e657506000611447565b60006117f283856123f3565b9050826117ff85836123ba565b1461147b5760405160e560020a62461bcd0281526004016102a990612190565b600081848411156118465760405160e560020a62461bcd0281526004016102a99190611d8c565b5060006118538486612412565b95945050505050565b6040518060e00160405280600081526020016000815260200160008152602001600081526020016000815260200160008152602001600081525090565b604051806101600160405280600015158152602001600081526020016000815260200160008152602001600081526020016000815260200160008152602001600081526020016000815260200160008152602001600081525090565b604051806101e00160405280600081526020016000815260200160008152602001600081526020016000815260200160008152602001600081526020016000815260200160008152602001600081526020016000815260200160008152602001600081526020016000600160a060020a031681526020016000600160a060020a031681525090565b60405180610100016040528060008152602001600081526020016000815260200160008152602001600081526020016000815260200160008152602001600081525090565b6000602082840312156119d3578081fd5b8151600160a060020a038116811461147b578182fd5b6000602082840312156119fa578081fd5b8151801515811461147b578182fd5b600060208284031215611a1a578081fd5b5035919050565b600060208284031215611a32578081fd5b5051919050565b60008060408385031215611a4b578081fd5b50508035926020909101359150565b600080600060608486031215611a6e578081fd5b505081359360208301359350604090920135919050565b60008060408385031215611a4b578182fd5b60008060408385031215611aa9578182fd5b505080516020909101519092909150565b60008060008060808587031215611acf578081fd5b505082516020840151604085015160609095015191969095509092509050565b60008060008060008060c08789031215611b07578182fd5b505084359660208601359650604086013595606081013595506080810135945060a0013592509050565b600080600080600080600080610100898b031215611b4d578182fd5b505086516020880151604089015160608a015160808b015160a08c015160c08d015160e0909d0151959e949d50929b919a50985090965094509092509050565b600160a060020a03929092166c01000000000000000000000000028252601482015260340190565b60008251611bc7818460208701612429565b9190910192915050565b600160a060020a0391909116815260200190565b600160a060020a0392831681529116602082015260400190565b600160a060020a039384168152919092166020820152604081019190915260600190565b600160a060020a03929092168252602082015260400190565b90815260200190565b918252600160a060020a0316602082015260400190565b928352600160a060020a03919091166020830152604082015260600190565b938452600160a060020a039290921660208401526040830152606082015260800190565b918252602082015260400190565b9687526020870195909552600160a060020a039390931660408601526060850191909152608084015260a083015260c082015260e00190565b9283526020830191909152604082015260600190565b93845260208401929092526040830152606082015260800190565b978852602088019690965260408701949094526060860192909252608085015260a084015260c083015260e08201526101000190565b988952602089019790975260408801959095526060870193909352608086019190915260a085015260c084015260e08301526101008201526101200190565b6000602082528251806020840152611dab816040850160208701612429565b601f01601f19169190910160400192915050565b60208082526011908201527f47616d6520737461747573206572726f72000000000000000000000000000000604082015260600190565b6020808252600b908201527f47616d6520657869737473000000000000000000000000000000000000000000604082015260600190565b60208082526012908201527f47616d6520646f65736e27742065786973740000000000000000000000000000604082015260600190565b6020808252601f908201527f456e642074696d65206d757374206265203e2063757272656e742074696d6500604082015260600190565b6020808252601d908201527f4f7074696f6e206e6f7420696e207370656369666965642072616e6765000000604082015260600190565b60208082526018908201527f546f6b656e207472616e7366657220696e206661696c65640000000000000000604082015260600190565b60208082526014908201527f496e73756666696369656e742062616c616e6365000000000000000000000000604082015260600190565b60208082526014908201527f47616d6520686173206e6f742073746172746564000000000000000000000000604082015260600190565b6020808252601a908201527f546f6b656e207472616e7366657220696e206f766572666c6f77000000000000604082015260600190565b60208082526027908201527f436865636b207573657220616e642070726f78792072656c6174696f6e73686960408201527f70206572726f7200000000000000000000000000000000000000000000000000606082015260800190565b60208082526024908201527f5468652067616d6520726573756c74732068617665206265656e207375626d6960408201527f7474656400000000000000000000000000000000000000000000000000000000606082015260800190565b6020808252600c908201527f47616d65206973206f7665720000000000000000000000000000000000000000604082015260600190565b60208082526031908201527f5468652062657420616d6f756e742069732067726561746572207468616e207460408201527f6865206d696e696d756d20616d6f756e74000000000000000000000000000000606082015260800190565b6020808252602e908201527f5468652062657420616d6f756e74206973206c657373207468616e207468652060408201527f6d696e696d756d20616d6f756e74000000000000000000000000000000000000606082015260800190565b6020808252601f908201527f6d696e20616d6f756e74206d757374206265203e206d617820616d6f756e7400604082015260600190565b60208082526021908201527f536166654d6174683a206d756c7469706c69636174696f6e206f766572666c6f60408201527f7700000000000000000000000000000000000000000000000000000000000000606082015260800190565b60208082526013908201527f436865636b20737461747573206661696c656400000000000000000000000000604082015260600190565b60208082526014908201527f5468652067616d65206973206e6f74206f766572000000000000000000000000604082015260600190565b60208082526017908201527f63616c6c6572206973206e6f74207468652070726f7879000000000000000000604082015260600190565b60208082526022908201527f53746172742074696d65206d757374206265203e3d2063757272656e7420746960408201527f6d65000000000000000000000000000000000000000000000000000000000000606082015260800190565b6020808252601d908201527f456e642074696d65206d757374206265203e2073746172742074696d65000000604082015260600190565b60208082526019908201527f546f6b656e207472616e73666572206f7574206661696c656400000000000000604082015260600190565b60208082526029908201527f4f7074696f6e2031206f72204f7074696f6e3220746f74616c2062657420616d60408201527f6f756e7420697320300000000000000000000000000000000000000000000000606082015260800190565b6000826123ee577f4e487b710000000000000000000000000000000000000000000000000000000081526012600452602481fd5b500490565b600081600019048311821515161561240d5761240d612455565b500290565b60008282101561242457612424612455565b500390565b60005b8381101561244457818101518382015260200161242c565b838111156115925750506000910152565b7f4e487b7100000000000000000000000000000000000000000000000000000000600052601160045260246000fdfea26469706673582212208021c6b7242152ad7f74b1e9438bed75588cc8de4580e6515bae43eab798508164736f6c63430008000033",
  "immutableReferences": {},
  "source": "// SPDX-License-Identifier: GPL-3.0\npragma solidity >=0.5.16 <0.9.0;\n\nimport \"./SafeMath.sol\";\nimport \"./EIP20NonStandardInterface.sol\";\nimport \"./EIP20Interface.sol\";\nimport \"./IGameStorage.sol\";\nimport \"./IProxyFee.sol\";\nimport \"./IRelationship.sol\";\n\ncontract Game {\n    using SafeMath for uint256;\n\n    /**\n     * @notice Specified currency for betting\n     */\n    address public tokenContract;\n\n    /**\n     * @notice Proxy address\n     */\n    address public proxy;\n\n    /**\n     * @notice Game storage contract\n     */\n    IGameStorage public _storage;\n\n    /**\n     * @notice The platform deducts the fee for the agent to create the game\n     */\n    IProxyFee public proxyFee;\n\n    /**\n     * @notice User-Agent Relationship Binding and Verification\n     */\n    IRelationship public relationship;\n\n    /**\n     * @notice The game state definition\n     */\n    enum GameStatus {\n        NONE,\n        RUNNING,\n        ENDED,\n        CANCELLED\n    }\n\n    /**\n     * @notice The game result definition\n     */\n    enum GameResult {\n        NONE,\n        OPTION1,\n        OPTION2\n    }\n\n    /**\n     * @notice Event emitted when the new game created\n     */\n    event GameCreated(bytes32 gameHash, uint gameName, uint status, uint feeRate);\n\n    /**\n     * @notice Event emitted when the game over submitted result\n     */\n    event GameResultSubmitted(bytes32 gameHash, uint gameName, uint fee, uint agentFee, uint platformFee, uint option1Amount, uint option2Amount, uint status, uint result);\n\n    /**\n     * @notice Event emitted when the game canceled\n     */\n    event GameCancelled(bytes32 gameHash, uint gameName);\n\n    /**\n     * @notice Event emitted when user betting game\n     */\n    event PayerVote (bytes32 gameHash, uint gameName, address voter, uint amount, uint option, uint option1Amount, uint option2Amount);\n\n    /**\n     * @notice Event emitted when player cash out after game\n     */\n    event Withdraw(bytes32 gameHash, address account, uint amount, uint balance);\n\n\n    modifier isProxy(){\n        require(msg.sender == proxy, \"caller is not the proxy\");\n        _;\n    }\n\n    /**\n     * @notice Game constructor\n     * @param tokenContract_ The address of the Kusdt erc20 token\n     * @param storage_ The address of the storage contract\n     * @param proxyFee_ The address of proxy fee contract\n     * @param relationship_ The address of User-Agent Relationship contract\n     * @param proxy_ The address of proxy admin account\n     */\n    constructor(address tokenContract_, address storage_, address proxyFee_, address relationship_, address proxy_){\n        tokenContract = tokenContract_;\n        _storage = IGameStorage(storage_);\n        proxyFee = IProxyFee(proxyFee_);\n        relationship = IRelationship(relationship_);\n        proxy = proxy_;\n\n        /* Check if proxy address exists in proxy relationship */\n        require(relationship.isProxy(proxy), \"Check proxy error\");\n\n        /* Check whether the storage contract address is legal */\n        require(_storage.isStorage(), \"Check storage error\");\n    }\n\n    struct NewGameVars {\n        uint startTime;\n        uint endTime;\n        uint minAmount;\n        uint maxAmount;\n        uint feeRate;\n        uint status;\n        uint result;\n    }\n\n    /**\n     * @notice Proxy add new game\n     * @param name Unique game name\n     * @param startTime The game start time\n     * @param endTime The game end time\n     * @param minAmount The game bet minimum amount\n     * @param maxAmount The game betting maximum amount\n     * @param feeRate The fee rate charged by the platform and the agent after the game is over\n     */\n    function newGame(uint name, uint startTime, uint endTime, uint minAmount, uint maxAmount, uint feeRate) external isProxy returns (bytes32 gameHash){\n\n        /* Verify that the game start time must be greater than the current time */\n        require(startTime >= block.timestamp, \"Start time must be >= current time\");\n\n        /* Verify that the end time of the game must be greater than the start time */\n        require(endTime > startTime, \"End time must be > start time\");\n\n        /* Verify that the end time of the game must be greater than the current time */\n        require(endTime > block.timestamp, \"End time must be > current time\");\n\n        /* Verify that the maximum bet amount must be greater than the minimum bet amount */\n        require(maxAmount > minAmount, \"min amount must be > max amount\");\n\n\n        /* Generate game hash based on game name */\n        gameHash = sha256(abi.encodePacked(address(this), name));\n\n\n        NewGameVars memory vars;\n\n        /* Check if the game already exists */\n        (,, vars.endTime, vars.minAmount, vars.maxAmount, vars.feeRate, vars.status,) = _storage.getGame(gameHash);\n        require(vars.status == uint(GameStatus.NONE), \"Game exists\");\n\n        /* Write the game info into storage */\n        _storage.createGame(gameHash, name, startTime, endTime, minAmount, maxAmount, feeRate, uint(GameStatus.RUNNING));\n\n        /* The platform charges the proxy to create the game fee */\n        proxyFee.payNewGame(msg.sender);\n\n        /* Emit a GameCreated event */\n        emit GameCreated(gameHash, name, uint(GameStatus.RUNNING), feeRate);\n    }\n\n    struct CancelGameVars {\n        uint name;\n        uint startTime;\n        uint endTime;\n        uint minAmount;\n        uint maxAmount;\n        uint feeRate;\n        uint status;\n        uint result;\n    }\n\n    /**\n     * @notice Proxy cancel the game\n     * @param gameHash Hash of the game to be canceled\n     */\n    function cancel(bytes32 gameHash) external isProxy {\n        CancelGameVars memory vars;\n\n        /* Check if the game exists */\n        (vars.name, vars.startTime, vars.endTime, vars.minAmount, vars.maxAmount, vars.feeRate, vars.status,) = _storage.getGame(gameHash);\n        require(vars.name > 0, \"Game doesn't exist\");\n\n        /* Cancellation of the game must be made before submitting the game results */\n        require(vars.status == uint(GameStatus.RUNNING), \"Check status failed\");\n\n        /* Cancel and liquidate user bets */\n        _storage.cancel(gameHash);\n\n        /* Write the game state and result into storage */\n        _storage.setGameResult(gameHash, uint(GameStatus.CANCELLED), uint(GameResult.NONE));\n\n        /* Emit a GameCancelled event */\n        emit GameCancelled(gameHash, vars.name);\n    }\n\n    struct SubmitVars {\n\n        // Game info\n        uint name;\n        uint startTime;\n        uint endTime;\n        uint minAmount;\n        uint maxAmount;\n        uint feeRate;\n        uint status;\n\n        //Vote options total amount\n        uint option1Amount;\n        uint option2Amount;\n\n        //fee\n        uint fee;\n        uint agentFee;\n        uint platformFee;\n        uint result;\n\n        //address\n        address agent;\n        address platform;\n    }\n\n    /**\n     * @notice Proxy submit game result\n     * @param gameHash Hash of the game result to be submitted\n     * @param result The game result value of GameResult.OPTION1 or  GameResult.OPTION2\n     */\n    function submitGameResult(bytes32 gameHash, uint result) external isProxy {\n        SubmitVars memory vars;\n\n        /* Check if the game end time is reached */\n        (vars.name, vars.startTime, vars.endTime, vars.minAmount, vars.maxAmount, vars.feeRate, vars.status,) = _storage.getGame(gameHash);\n        require(block.timestamp > vars.endTime, \"The game is not over\");\n\n        /* Check if the game state is over or canceled */\n        require(vars.status == uint(GameStatus.RUNNING), \"The game results have been submitted\");\n\n        /* The result value submitted by the game must be within the specified value range */\n        require(result == uint(GameResult.OPTION1) || result == uint(GameResult.OPTION2), \"Option not in specified range\");\n\n        /* If one option bet amount is 0, the win or loss cannot be calculated */\n        (vars.option1Amount, vars.option2Amount,,) = _storage.getGameVote(gameHash);\n        require(vars.option1Amount > 0 && vars.option2Amount > 0, \"Option 1 or Option2 total bet amount is 0\");\n\n        /* Calculation of fees and settlement of user betting wins and losses */\n        if (result == uint(GameResult.OPTION1)) {\n            /* Calculate game service charge of agent and platform */\n            (vars.fee, vars.agentFee, vars.platformFee) = calculateFee(vars.option2Amount, vars.feeRate);\n\n            /* Set game result to option 1 */\n            vars.result = uint(GameResult.OPTION1);\n\n            /* Liquidation option 1 betting user's winning amount */\n            _storage.liquidateOption1(gameHash, vars.fee);\n\n        } else if (result == uint(GameResult.OPTION2)) {\n            /* Calculate game service charge of agent and platform */\n            (vars.fee, vars.agentFee, vars.platformFee) = calculateFee(vars.option1Amount, vars.feeRate);\n\n            /* Set game result to option 2 */\n            vars.result = uint(GameResult.OPTION2);\n\n            /* Liquidation option 2 betting user's winning amount */\n            _storage.liquidateOption2(gameHash, vars.fee);\n        } else {\n            revert(\"Option not in specified range\");\n\n        }\n        /* Send the fees of the platform and the agent to the corresponding address */\n        vars.agent = _storage.agent();\n        vars.platform = _storage.platform();\n        doTransferOut(vars.agent, vars.agentFee);\n        doTransferOut(vars.platform, vars.platformFee);\n\n        /* Write the game state and result into storage */\n        _storage.setGameResult(gameHash, uint(GameStatus.ENDED), vars.result);\n\n        /* Emit a GameResultSubmitted event */\n        emit GameResultSubmitted(gameHash, vars.name, vars.fee, vars.agentFee, vars.platformFee, vars.option1Amount, vars.option2Amount, uint(GameStatus.ENDED), vars.result);\n    }\n\n    /**\n     * @notice Calculate the fee amount charged by the final platform and agent\n     * @param amount Total amount of losers' bets\n     * @param feeRate The game setting fee ratio\n     */\n    function calculateFee(uint amount, uint feeRate) public view returns (uint fee, uint agentFee, uint platformFee){\n        /* Get the fee rate of fees charged by the agent */\n        uint agentFeeRate = _storage.agentFeeRate();\n\n        // fee = loseAmount * feeRate\n        fee = amount.wmul(feeRate);\n\n        // agentFee = fee * agentRate\n        agentFee = fee.wmul(agentFeeRate);\n\n        // platformFee = fee * (1-agentRate)\n        platformFee = fee.sub(agentFee);\n    }\n\n    /**\n     * @notice Calculate game hash based on game name\n     * @param name Total game name\n     */\n    function getGameHash(uint name) public view returns (bytes32){\n        return sha256(abi.encodePacked(address(this), name));\n    }\n\n    struct PlayGameVars {\n        bool verify;\n\n        uint name;\n        uint startTime;\n        uint endTime;\n        uint minAmount;\n        uint maxAmount;\n        uint feeRate;\n        uint status;\n        uint result;\n\n        uint option1Amount;\n        uint option2Amount;\n    }\n\n    /**\n     * @notice User initiates game bet\n     * @param gameHash Betting game hash\n     * @param amount Bet amount\n     * @param option Bet option\n     */\n    function play(bytes32 gameHash, uint amount, uint option) external {\n        PlayGameVars memory vars;\n\n        /* The betting player must exist in the current proxy relationship */\n        vars.verify = relationship.verifyAndBind(msg.sender, proxy);\n        require(vars.verify, \"Check user and proxy relationship error\");\n\n        /* Check if game exists and game state must be in running state */\n        (vars.name, vars.startTime, vars.endTime, vars.minAmount, vars.maxAmount, vars.feeRate, vars.status,) = _storage.getGame(gameHash);\n        require(vars.status == uint(GameStatus.RUNNING), \"Game status error\");\n\n        /* Check if the game has started */\n        require(block.timestamp > vars.startTime, \"Game has not started\");\n\n        /* Check if the game is over */\n        require(block.timestamp < vars.endTime, \"Game is over\");\n\n        /* Check if the bet amount is greater than the minimum amount */\n        require(amount >= vars.minAmount, \"The bet amount is less than the minimum amount\");\n\n        /* Check if the bet amount is less than the maximum amount */\n        require(amount <= vars.maxAmount, \"The bet amount is greater than the minimum amount\");\n\n        /* Check if the bet option is the specified option */\n        require(option == uint(GameResult.OPTION1) || option == uint(GameResult.OPTION2), \"Option not in specified range\");\n\n        /* Transfer the amount of bet authorized by the player */\n        uint _amount = doTransferIn(msg.sender, amount);\n\n\n        if (option == uint(GameResult.OPTION1)) {\n            /* Write the payer betting option1 amount into storage */\n            _storage.setOption1(gameHash, msg.sender, _amount);\n\n        } else if (option == uint(GameResult.OPTION2)) {\n            /* Write the payer betting option1 amount into storage */\n            _storage.setOption2(gameHash, msg.sender, _amount);\n\n        } else {\n            revert(\"Option not in specified range\");\n\n        }\n\n        /* Get all bet amounts of the current player */\n        (vars.option1Amount, vars.option2Amount) = _storage.getPayerVote(gameHash, msg.sender);\n\n        /* Emit a PayerVote event */\n        emit PayerVote(gameHash, vars.name, msg.sender, _amount, option, vars.option1Amount, vars.option2Amount);\n    }\n\n    /**\n     * @notice The user withdraws the kusd won or wagered in a game\n     * @param gameHash The betting game hash\n     */\n    function withdraw(bytes32 gameHash) external returns (uint amount){\n\n        /* Check the amount of cash that the user can withdraw in the game */\n        amount = _storage.getBalance(gameHash, msg.sender);\n        require(amount > 0, \"Insufficient balance\");\n\n        /* Transfer to msg.sender */\n        doTransferOut(msg.sender, amount);\n\n        /* Write user balance into storage */\n        _storage.setBalance(gameHash, msg.sender, 0);\n\n        /* Emit a PayerVote event */\n        emit Withdraw(gameHash, msg.sender, amount, 0);\n    }\n\n    /**\n    * @dev Similar to EIP20 transfer, except it handles a False result from `transferFrom` and reverts in that case.\n     *      This will revert due to insufficient balance or insufficient allowance.\n     *      This function returns the actual amount received,\n     *      which may be less than `amount` if there is a fee attached to the transfer.\n     *\n     *      Note: This wrapper safely handles non-standard ERC-20 tokens that do not return a value.\n     *            See here: https://medium.com/coinmonks/missing-return-value-bug-at-least-130-tokens-affected-d67bf08521ca\n     */\n    function doTransferIn(address from, uint amount) internal returns (uint) {\n        EIP20NonStandardInterface token = EIP20NonStandardInterface(tokenContract);\n        uint balanceBefore = EIP20Interface(tokenContract).balanceOf(address(this));\n        token.transferFrom(from, address(this), amount);\n\n        bool success;\n        assembly {\n            switch returndatasize()\n            case 0 {// This is a non-standard ERC-20\n                success := not(0)          // set success to true\n            }\n            case 32 {// This is a compliant ERC-20\n                returndatacopy(0, 0, 32)\n                success := mload(0)        // Set `success = returndata` of external call\n            }\n            default {// This is an excessively non-compliant ERC-20, revert.\n                revert(0, 0)\n            }\n        }\n        require(success, \"Token transfer in failed\");\n\n        // Calculate the amount that was *actually* transferred\n        uint balanceAfter = EIP20Interface(tokenContract).balanceOf(address(this));\n        require(balanceAfter >= balanceBefore, \"Token transfer in overflow\");\n        return balanceAfter - balanceBefore; // underflow already checked above, just subtract\n    }\n\n    /**\n     * @dev Similar to EIP20 transfer, except it handles a False success from `transfer` and returns an explanatory\n     *      error code rather than reverting. If caller has not called checked protocol's balance, this may revert due to\n     *      insufficient cash held in this contract. If caller has checked protocol's balance prior to this call, and verified\n     *      it is >= amount, this should not revert in normal conditions.\n     *\n     *      Note: This wrapper safely handles non-standard ERC-20 tokens that do not return a value.\n     *            See here: https://medium.com/coinmonks/missing-return-value-bug-at-least-130-tokens-affected-d67bf08521ca\n     */\n    function doTransferOut(address to, uint amount) internal {\n        EIP20NonStandardInterface token = EIP20NonStandardInterface(tokenContract);\n        token.transfer(to, amount);\n        bool success;\n        assembly {\n            switch returndatasize()\n            case 0 {// This is a non-standard ERC-20\n                success := not(0)          // set success to true\n            }\n            case 32 {// This is a complaint ERC-20\n                returndatacopy(0, 0, 32)\n                success := mload(0)        // Set `success = returndata` of external call\n            }\n            default {// This is an excessively non-compliant ERC-20, revert.\n                revert(0, 0)\n            }\n        }\n        require(success, \"Token transfer out failed\");\n    }\n}\n\n\n",
  "sourcePath": "/Users/drunken/work/kpc/contracts/Game.sol",
  "compiler": {
    "name": "solc",
    "version": "0.8.0+commit.c7dfd78e.Emscripten.clang"
  },
  "schemaVersion": "3.4.1",
  "updatedAt": "2022-04-08T07:10:56.519Z",
  "devdoc": {
    "kind": "dev",
    "methods": {
      "calculateFee(uint256,uint256)": {
        "params": {
          "amount": "Total amount of losers' bets",
          "feeRate": "The game setting fee ratio"
        }
      },
      "cancel(bytes32)": {
        "params": {
          "gameHash": "Hash of the game to be canceled"
        }
      },
      "constructor": {
        "params": {
          "proxyFee_": "The address of proxy fee contract",
          "proxy_": "The address of proxy admin account",
          "relationship_": "The address of User-Agent Relationship contract",
          "storage_": "The address of the storage contract",
          "tokenContract_": "The address of the Kusdt erc20 token"
        }
      },
      "getGameHash(uint256)": {
        "params": {
          "name": "Total game name"
        }
      },
      "newGame(uint256,uint256,uint256,uint256,uint256,uint256)": {
        "params": {
          "endTime": "The game end time",
          "feeRate": "The fee rate charged by the platform and the agent after the game is over",
          "maxAmount": "The game betting maximum amount",
          "minAmount": "The game bet minimum amount",
          "name": "Unique game name",
          "startTime": "The game start time"
        }
      },
      "play(bytes32,uint256,uint256)": {
        "params": {
          "amount": "Bet amount",
          "gameHash": "Betting game hash",
          "option": "Bet option"
        }
      },
      "submitGameResult(bytes32,uint256)": {
        "params": {
          "gameHash": "Hash of the game result to be submitted",
          "result": "The game result value of GameResult.OPTION1 or  GameResult.OPTION2"
        }
      },
      "withdraw(bytes32)": {
        "params": {
          "gameHash": "The betting game hash"
        }
      }
    },
    "version": 1
  },
  "userdoc": {
    "events": {
      "GameCancelled(bytes32,uint256)": {
        "notice": "Event emitted when the game canceled"
      },
      "GameCreated(bytes32,uint256,uint256,uint256)": {
        "notice": "Event emitted when the new game created"
      },
      "GameResultSubmitted(bytes32,uint256,uint256,uint256,uint256,uint256,uint256,uint256,uint256)": {
        "notice": "Event emitted when the game over submitted result"
      },
      "PayerVote(bytes32,uint256,address,uint256,uint256,uint256,uint256)": {
        "notice": "Event emitted when user betting game"
      },
      "Withdraw(bytes32,address,uint256,uint256)": {
        "notice": "Event emitted when player cash out after game"
      }
    },
    "kind": "user",
    "methods": {
      "_storage()": {
        "notice": "Game storage contract"
      },
      "calculateFee(uint256,uint256)": {
        "notice": "Calculate the fee amount charged by the final platform and agent"
      },
      "cancel(bytes32)": {
        "notice": "Proxy cancel the game"
      },
      "constructor": {
        "notice": "Game constructor"
      },
      "getGameHash(uint256)": {
        "notice": "Calculate game hash based on game name"
      },
      "newGame(uint256,uint256,uint256,uint256,uint256,uint256)": {
        "notice": "Proxy add new game"
      },
      "play(bytes32,uint256,uint256)": {
        "notice": "User initiates game bet"
      },
      "proxy()": {
        "notice": "Proxy address"
      },
      "proxyFee()": {
        "notice": "The platform deducts the fee for the agent to create the game"
      },
      "relationship()": {
        "notice": "User-Agent Relationship Binding and Verification"
      },
      "submitGameResult(bytes32,uint256)": {
        "notice": "Proxy submit game result"
      },
      "tokenContract()": {
        "notice": "Specified currency for betting"
      },
      "withdraw(bytes32)": {
        "notice": "The user withdraws the kusd won or wagered in a game"
      }
    },
    "version": 1
  }
}