{
  "contractName": "Ownable",
  "abi": [
    {
      "inputs": [],
      "stateMutability": "nonpayable",
      "type": "constructor"
    },
    {
      "anonymous": false,
      "inputs": [
        {
          "indexed": true,
          "internalType": "address",
          "name": "previousOwner",
          "type": "address"
        },
        {
          "indexed": true,
          "internalType": "address",
          "name": "newOwner",
          "type": "address"
        }
      ],
      "name": "OwnershipTransferred",
      "type": "event"
    },
    {
      "inputs": [],
      "name": "owner",
      "outputs": [
        {
          "internalType": "address",
          "name": "",
          "type": "address"
        }
      ],
      "stateMutability": "view",
      "type": "function"
    },
    {
      "inputs": [
        {
          "internalType": "address",
          "name": "account",
          "type": "address"
        }
      ],
      "name": "isOwner",
      "outputs": [
        {
          "internalType": "bool",
          "name": "",
          "type": "bool"
        }
      ],
      "stateMutability": "view",
      "type": "function"
    },
    {
      "inputs": [],
      "name": "renounceOwnership",
      "outputs": [],
      "stateMutability": "nonpayable",
      "type": "function"
    },
    {
      "inputs": [
        {
          "internalType": "address",
          "name": "newOwner",
          "type": "address"
        }
      ],
      "name": "transferOwnership",
      "outputs": [
        {
          "internalType": "bool",
          "name": "",
          "type": "bool"
        }
      ],
      "stateMutability": "nonpayable",
      "type": "function"
    }
  ],
  "bytecode": "0x608060405234801561001057600080fd5b5060008054600160a060020a03191633179055610375806100326000396000f3fe608060405234801561001057600080fd5b5060043610610068577c010000000000000000000000000000000000000000000000000000000060003504632f54bf6e811461006d578063715018a6146100965780638da5cb5b146100a0578063f2fde38b146100b5575b600080fd5b61008061007b366004610284565b6100c8565b60405161008d91906102c6565b60405180910390f35b61009e6100dc565b005b6100a861017b565b60405161008d91906102b2565b6100806100c3366004610284565b61018a565b600054600160a060020a0390811691161490565b6100e5336100c8565b610124576040517f08c379a000000000000000000000000000000000000000000000000000000000815260040161011b90610308565b60405180910390fd5b60008054604051600160a060020a03909116907f8be0079c531659141344cd1fd0a4f28419497f9722a3daafe3b4186f6b6457e0908390a36000805473ffffffffffffffffffffffffffffffffffffffff19169055565b600054600160a060020a031690565b6000610195336100c8565b6101cb576040517f08c379a000000000000000000000000000000000000000000000000000000000815260040161011b90610308565b6101d4826101dc565b506001919050565b600160a060020a03811661021c576040517f08c379a000000000000000000000000000000000000000000000000000000000815260040161011b906102d1565b60008054604051600160a060020a03808516939216917f8be0079c531659141344cd1fd0a4f28419497f9722a3daafe3b4186f6b6457e091a36000805473ffffffffffffffffffffffffffffffffffffffff1916600160a060020a0392909216919091179055565b600060208284031215610295578081fd5b8135600160a060020a03811681146102ab578182fd5b9392505050565b600160a060020a0391909116815260200190565b901515815260200190565b6020808252601d908201527f6e6577206f776e657220697320746865207a65726f2061646472657373000000604082015260600190565b60208082526017908201527f63616c6c6572206973206e6f7420746865206f776e657200000000000000000060408201526060019056fea2646970667358221220149b0ae81b994733b3a253cd14e0cd3124467a1ee20483628892d67dbdcc40db64736f6c63430008000033",
  "immutableReferences": {},
  "source": "// SPDX-License-Identifier: GPL-3.0\npragma solidity >=0.5.16 <0.9.0;\n\ncontract Ownable {\n    address private _owner;\n\n    constructor(){\n        _owner = msg.sender;\n    }\n\n    function owner() public view returns (address){\n        return _owner;\n    }\n\n    function isOwner(address account) public view returns (bool){\n        return account == _owner;\n    }\n\n    function renounceOwnership() public onlyOwner {\n        emit OwnershipTransferred(_owner, address(0));\n        _owner = address(0);\n    }\n\n    function _transferOwnership(address newOwner) internal {\n        require(newOwner != address(0), \"new owner is the zero address\");\n        emit OwnershipTransferred(_owner, newOwner);\n        _owner = newOwner;\n    }\n\n    function transferOwnership(address newOwner) public onlyOwner returns (bool){\n        _transferOwnership(newOwner);\n        return true;\n    }\n\n    modifier onlyOwner(){\n        require(isOwner(msg.sender), \"caller is not the owner\");\n        _;\n    }\n\n    event OwnershipTransferred(address indexed previousOwner, address indexed newOwner);\n}\n",
  "sourcePath": "/Users/drunken/work/kpc/contracts/Ownable.sol",
  "compiler": {
    "name": "solc",
    "version": "0.8.0+commit.c7dfd78e.Emscripten.clang"
  },
  "schemaVersion": "3.4.1",
  "updatedAt": "2022-04-08T07:10:56.579Z",
  "devdoc": {
    "kind": "dev",
    "methods": {},
    "version": 1
  },
  "userdoc": {
    "kind": "user",
    "methods": {},
    "version": 1
  }
}