{
  "contractName": "PlatformGame",
  "abi": [
    {
      "inputs": [
        {
          "internalType": "address",
          "name": "tokenContract_",
          "type": "address"
        },
        {
          "internalType": "address",
          "name": "storage_",
          "type": "address"
        }
      ],
      "stateMutability": "nonpayable",
      "type": "constructor"
    },
    {
      "anonymous": false,
      "inputs": [
        {
          "indexed": false,
          "internalType": "bytes32",
          "name": "gameHash",
          "type": "bytes32"
        },
        {
          "indexed": false,
          "internalType": "uint256",
          "name": "gameName",
          "type": "uint256"
        }
      ],
      "name": "GameCancelled",
      "type": "event"
    },
    {
      "anonymous": false,
      "inputs": [
        {
          "indexed": false,
          "internalType": "bytes32",
          "name": "gameHash",
          "type": "bytes32"
        },
        {
          "indexed": false,
          "internalType": "uint256",
          "name": "gameName",
          "type": "uint256"
        },
        {
          "indexed": false,
          "internalType": "uint256",
          "name": "status",
          "type": "uint256"
        },
        {
          "indexed": false,
          "internalType": "uint256",
          "name": "feeRate",
          "type": "uint256"
        }
      ],
      "name": "GameCreated",
      "type": "event"
    },
    {
      "anonymous": false,
      "inputs": [
        {
          "indexed": false,
          "internalType": "bytes32",
          "name": "gameHash",
          "type": "bytes32"
        },
        {
          "indexed": false,
          "internalType": "uint256",
          "name": "gameName",
          "type": "uint256"
        },
        {
          "indexed": false,
          "internalType": "uint256",
          "name": "fee",
          "type": "uint256"
        },
        {
          "indexed": false,
          "internalType": "uint256",
          "name": "agentFee",
          "type": "uint256"
        },
        {
          "indexed": false,
          "internalType": "uint256",
          "name": "platformFee",
          "type": "uint256"
        },
        {
          "indexed": false,
          "internalType": "uint256",
          "name": "option1Amount",
          "type": "uint256"
        },
        {
          "indexed": false,
          "internalType": "uint256",
          "name": "option2Amount",
          "type": "uint256"
        },
        {
          "indexed": false,
          "internalType": "uint256",
          "name": "status",
          "type": "uint256"
        },
        {
          "indexed": false,
          "internalType": "uint256",
          "name": "result",
          "type": "uint256"
        }
      ],
      "name": "GameResultSubmitted",
      "type": "event"
    },
    {
      "anonymous": false,
      "inputs": [
        {
          "indexed": true,
          "internalType": "address",
          "name": "previousOwner",
          "type": "address"
        },
        {
          "indexed": true,
          "internalType": "address",
          "name": "newOwner",
          "type": "address"
        }
      ],
      "name": "OwnershipTransferred",
      "type": "event"
    },
    {
      "anonymous": false,
      "inputs": [
        {
          "indexed": false,
          "internalType": "bytes32",
          "name": "gameHash",
          "type": "bytes32"
        },
        {
          "indexed": false,
          "internalType": "uint256",
          "name": "gameName",
          "type": "uint256"
        },
        {
          "indexed": false,
          "internalType": "address",
          "name": "voter",
          "type": "address"
        },
        {
          "indexed": false,
          "internalType": "uint256",
          "name": "amount",
          "type": "uint256"
        },
        {
          "indexed": false,
          "internalType": "uint256",
          "name": "option",
          "type": "uint256"
        },
        {
          "indexed": false,
          "internalType": "uint256",
          "name": "option1Amount",
          "type": "uint256"
        },
        {
          "indexed": false,
          "internalType": "uint256",
          "name": "option2Amount",
          "type": "uint256"
        }
      ],
      "name": "PayerVote",
      "type": "event"
    },
    {
      "anonymous": false,
      "inputs": [
        {
          "indexed": false,
          "internalType": "bytes32",
          "name": "gameHash",
          "type": "bytes32"
        },
        {
          "indexed": false,
          "internalType": "address",
          "name": "account",
          "type": "address"
        },
        {
          "indexed": false,
          "internalType": "uint256",
          "name": "amount",
          "type": "uint256"
        },
        {
          "indexed": false,
          "internalType": "uint256",
          "name": "balance",
          "type": "uint256"
        }
      ],
      "name": "Withdraw",
      "type": "event"
    },
    {
      "inputs": [],
      "name": "_storage",
      "outputs": [
        {
          "internalType": "contract IGameStorage",
          "name": "",
          "type": "address"
        }
      ],
      "stateMutability": "view",
      "type": "function"
    },
    {
      "inputs": [
        {
          "internalType": "address",
          "name": "account",
          "type": "address"
        }
      ],
      "name": "isOwner",
      "outputs": [
        {
          "internalType": "bool",
          "name": "",
          "type": "bool"
        }
      ],
      "stateMutability": "view",
      "type": "function"
    },
    {
      "inputs": [],
      "name": "owner",
      "outputs": [
        {
          "internalType": "address",
          "name": "",
          "type": "address"
        }
      ],
      "stateMutability": "view",
      "type": "function"
    },
    {
      "inputs": [],
      "name": "renounceOwnership",
      "outputs": [],
      "stateMutability": "nonpayable",
      "type": "function"
    },
    {
      "inputs": [],
      "name": "tokenContract",
      "outputs": [
        {
          "internalType": "address",
          "name": "",
          "type": "address"
        }
      ],
      "stateMutability": "view",
      "type": "function"
    },
    {
      "inputs": [
        {
          "internalType": "address",
          "name": "newOwner",
          "type": "address"
        }
      ],
      "name": "transferOwnership",
      "outputs": [
        {
          "internalType": "bool",
          "name": "",
          "type": "bool"
        }
      ],
      "stateMutability": "nonpayable",
      "type": "function"
    },
    {
      "inputs": [
        {
          "internalType": "uint256",
          "name": "name",
          "type": "uint256"
        },
        {
          "internalType": "uint256",
          "name": "startTime",
          "type": "uint256"
        },
        {
          "internalType": "uint256",
          "name": "endTime",
          "type": "uint256"
        },
        {
          "internalType": "uint256",
          "name": "minAmount",
          "type": "uint256"
        },
        {
          "internalType": "uint256",
          "name": "maxAmount",
          "type": "uint256"
        },
        {
          "internalType": "uint256",
          "name": "feeRate",
          "type": "uint256"
        }
      ],
      "name": "newGame",
      "outputs": [
        {
          "internalType": "bytes32",
          "name": "gameHash",
          "type": "bytes32"
        }
      ],
      "stateMutability": "nonpayable",
      "type": "function"
    },
    {
      "inputs": [
        {
          "internalType": "bytes32",
          "name": "gameHash",
          "type": "bytes32"
        }
      ],
      "name": "cancel",
      "outputs": [],
      "stateMutability": "nonpayable",
      "type": "function"
    },
    {
      "inputs": [
        {
          "internalType": "bytes32",
          "name": "gameHash",
          "type": "bytes32"
        },
        {
          "internalType": "uint256",
          "name": "result",
          "type": "uint256"
        }
      ],
      "name": "submitGameResult",
      "outputs": [],
      "stateMutability": "nonpayable",
      "type": "function"
    },
    {
      "inputs": [
        {
          "internalType": "uint256",
          "name": "amount",
          "type": "uint256"
        },
        {
          "internalType": "uint256",
          "name": "feeRate",
          "type": "uint256"
        }
      ],
      "name": "calculateFee",
      "outputs": [
        {
          "internalType": "uint256",
          "name": "fee",
          "type": "uint256"
        },
        {
          "internalType": "uint256",
          "name": "agentFee",
          "type": "uint256"
        },
        {
          "internalType": "uint256",
          "name": "platformFee",
          "type": "uint256"
        }
      ],
      "stateMutability": "view",
      "type": "function"
    },
    {
      "inputs": [
        {
          "internalType": "uint256",
          "name": "name",
          "type": "uint256"
        }
      ],
      "name": "getGameHash",
      "outputs": [
        {
          "internalType": "bytes32",
          "name": "",
          "type": "bytes32"
        }
      ],
      "stateMutability": "view",
      "type": "function"
    },
    {
      "inputs": [
        {
          "internalType": "bytes32",
          "name": "gameHash",
          "type": "bytes32"
        },
        {
          "internalType": "uint256",
          "name": "amount",
          "type": "uint256"
        },
        {
          "internalType": "uint256",
          "name": "option",
          "type": "uint256"
        }
      ],
      "name": "play",
      "outputs": [],
      "stateMutability": "nonpayable",
      "type": "function"
    },
    {
      "inputs": [
        {
          "internalType": "bytes32",
          "name": "gameHash",
          "type": "bytes32"
        }
      ],
      "name": "withdraw",
      "outputs": [
        {
          "internalType": "uint256",
          "name": "amount",
          "type": "uint256"
        }
      ],
      "stateMutability": "nonpayable",
      "type": "function"
    }
  ],
  "bytecode": "0x60806040523480156200001157600080fd5b506040516200261d3803806200261d833981016040819052620000349162000167565b6000805433600160a060020a031991821617909155600180548216600160a060020a0385811691909117909155600280549092168382161791829055604080517fafc55a400000000000000000000000000000000000000000000000000000000081529051929091169163afc55a4091600480820192602092909190829003018186803b158015620000c557600080fd5b505afa158015620000da573d6000803e3d6000fd5b505050506040513d601f19601f820116820180604052508101906200010091906200019e565b62000142576040517f08c379a00000000000000000000000000000000000000000000000000000000081526004016200013990620001c7565b60405180910390fd5b5050620001fe565b8051600160a060020a03811681146200016257600080fd5b919050565b600080604083850312156200017a578182fd5b62000185836200014a565b915062000195602084016200014a565b90509250929050565b600060208284031215620001b0578081fd5b81518015158114620001c0578182fd5b9392505050565b60208082526013908201527f436865636b2073746f72616765206572726f7200000000000000000000000000604082015260600190565b61240f806200020e6000396000f3fe608060405234801561001057600080fd5b50600436106100d35760003560e060020a900480638e19899e11610090578063c3fb90d61161006a578063c3fb90d6146101a3578063c4d252f5146101ab578063d1988b6a146101be578063f2fde38b146101d1576100d3565b80638e19899e1461016a57806390678ee71461017d578063c07a4b2214610190576100d3565b80632f54bf6e146100d857806334e731221461010157806355a373d614610123578063715018a61461013857806382007dd6146101425780638da5cb5b14610162575b600080fd5b6100eb6100e6366004611943565b6101e4565b6040516100f89190611b94565b60405180910390f35b61011461010f3660046119f7565b6101f8565b6040516100f893929190611c49565b61012b6102b5565b6040516100f89190611b43565b6101406102c4565b005b610155610150366004611a61565b61034c565b6040516100f89190611b9f565b61012b6105fc565b61015561017836600461197b565b61060b565b61014061018b3660046119cc565b610799565b61014061019e3660046119ab565b610b39565b61012b611034565b6101406101b936600461197b565b611043565b6101556101cc36600461197b565b61129a565b6100eb6101df366004611943565b611311565b600054600160a060020a0390811691161490565b600080600080600260009054906101000a9004600160a060020a0316600160a060020a031663086365946040518163ffffffff1660e060020a02815260040160206040518083038186803b15801561024f57600080fd5b505afa158015610263573d6000803e3d6000fd5b505050506040513d601f19601f820116820180604052508101906102879190611993565b9050610293868661134c565b935061029f848261134c565b92506102ab8484611372565b9150509250925092565b600154600160a060020a031681565b6102cd336101e4565b6102f55760405160e560020a62461bcd0281526004016102ec9061212a565b60405180910390fd5b60008054604051600160a060020a03909116907f8be0079c531659141344cd1fd0a4f28419497f9722a3daafe3b4186f6b6457e0908390a36000805473ffffffffffffffffffffffffffffffffffffffff19169055565b6000610357336101e4565b6103765760405160e560020a62461bcd0281526004016102ec9061212a565b428610156103995760405160e560020a62461bcd0281526004016102ec906121cf565b8585116103bb5760405160e560020a62461bcd0281526004016102ec9061222c565b4285116103dd5760405160e560020a62461bcd0281526004016102ec90611dfe565b8383116103ff5760405160e560020a62461bcd0281526004016102ec90612096565b60023088604051602001610414929190611aff565b60408051601f198184030181529082905261042e91611b27565b602060405180830381855afa15801561044b573d6000803e3d6000fd5b5050506040513d601f19601f8201168201806040525081019061046e9190611993565b90506104786117dd565b60025460405160e060020a6373931bbf028152600160a060020a03909116906373931bbf906104ab908590600401611b9f565b6101006040518083038186803b1580156104c457600080fd5b505afa1580156104d8573d6000803e3d6000fd5b505050506040513d601f19601f820116820180604052508101906104fc9190611aa3565b5060a0880152608087015260608601526040850152602084015250600090508160a00151146105405760405160e560020a62461bcd0281526004016102ec90611d59565b600254600160a060020a031663f066559c838a8a8a8a8a8a60016040518963ffffffff1660e060020a028152600401610580989796959493929190611c7a565b600060405180830381600087803b15801561059a57600080fd5b505af11580156105ae573d6000803e3d6000fd5b50506040517f69554c51258fba63861cb6e7fad1f0fbb8bf90eae0e8fbcb35567bb4c676c1c292506105e9915084908b906001908890611c5f565b60405180910390a1509695505050505050565b600054600160a060020a031690565b6002546040517f530e931c000000000000000000000000000000000000000000000000000000008152600091600160a060020a03169063530e931c906106579085903390600401611ba8565b60206040518083038186803b15801561066f57600080fd5b505afa158015610683573d6000803e3d6000fd5b505050506040513d601f19601f820116820180604052508101906106a79190611993565b9050600081116106cc5760405160e560020a62461bcd0281526004016102ec90611ea3565b6106d633826113b4565b6002546040517f071b267c000000000000000000000000000000000000000000000000000000008152600160a060020a039091169063071b267c906107249085903390600090600401611bbf565b600060405180830381600087803b15801561073e57600080fd5b505af1158015610752573d6000803e3d6000fd5b505050507fb66d4229fe9107b32cd9afe73d39ebf3d84f2f8c9dda72fedf450fbd02f70181823383600060405161078c9493929190611bde565b60405180910390a1919050565b6107a161181a565b60025460405160e060020a6373931bbf028152600160a060020a03909116906373931bbf906107d4908790600401611b9f565b6101006040518083038186803b1580156107ed57600080fd5b505afa158015610801573d6000803e3d6000fd5b505050506040513d601f19601f820116820180604052508101906108259190611aa3565b5060e088015260c087015260a0860152608085015260608401526040830152602082015260018160e00151146108705760405160e560020a62461bcd0281526004016102ec90611d22565b806040015142116108965760405160e560020a62461bcd0281526004016102ec90611eda565b806060015142106108bc5760405160e560020a62461bcd0281526004016102ec90611fa5565b80608001518310156108e35760405160e560020a62461bcd0281526004016102ec90612039565b8060a0015183111561090a5760405160e560020a62461bcd0281526004016102ec90611fdc565b60018214806109195750600282145b6109385760405160e560020a62461bcd0281526004016102ec90611e35565b60006109443385611488565b905060018314156109d3576002546040517f7f2e4cb5000000000000000000000000000000000000000000000000000000008152600160a060020a0390911690637f2e4cb59061099c90889033908690600401611bbf565b600060405180830381600087803b1580156109b657600080fd5b505af11580156109ca573d6000803e3d6000fd5b50505050610a44565b6002831415610a29576002546040517f2978c76c000000000000000000000000000000000000000000000000000000008152600160a060020a0390911690632978c76c9061099c90889033908690600401611bbf565b60405160e560020a62461bcd0281526004016102ec90611e35565b6002546040517f028e792e000000000000000000000000000000000000000000000000000000008152600160a060020a039091169063028e792e90610a8f9088903390600401611ba8565b604080518083038186803b158015610aa657600080fd5b505afa158015610aba573d6000803e3d6000fd5b505050506040513d601f19601f82011682018060405250810190610ade9190611a09565b6101408401819052610120840182905260208401516040517fd673958d9fdffd45587bae4b0ac6f4496db580d117f55538a0e3cea5640b7ed993610b2a938a9392339288928b92611c10565b60405180910390a15050505050565b610b42336101e4565b610b615760405160e560020a62461bcd0281526004016102ec9061212a565b610b69611876565b60025460405160e060020a6373931bbf028152600160a060020a03909116906373931bbf90610b9c908690600401611b9f565b6101006040518083038186803b158015610bb557600080fd5b505afa158015610bc9573d6000803e3d6000fd5b505050506040513d601f19601f82011682018060405250810190610bed9190611aa3565b5060c088015260a0870152608086015260608501526040840181905260208401919091529082524211610c355760405160e560020a62461bcd0281526004016102ec90612198565b60018160c0015114610c5c5760405160e560020a62461bcd0281526004016102ec90611f48565b6001821480610c6b5750600282145b610c8a5760405160e560020a62461bcd0281526004016102ec90611e35565b6002546040517fc11481c6000000000000000000000000000000000000000000000000000000008152600160a060020a039091169063c11481c690610cd3908690600401611b9f565b60806040518083038186803b158015610ceb57600080fd5b505afa158015610cff573d6000803e3d6000fd5b505050506040513d601f19601f82011682018060405250810190610d239190611a2c565b505061010083015260e0820181905215801590610d4557506000816101000151115b610d645760405160e560020a62461bcd0281526004016102ec9061229a565b6001821415610e1c57610d808161010001518260a001516101f8565b610160840152610140830152610120820181905260016101808301526002546040517fa508ca55000000000000000000000000000000000000000000000000000000008152600160a060020a039091169163a508ca5591610de5918791600401611c02565b600060405180830381600087803b158015610dff57600080fd5b505af1158015610e13573d6000803e3d6000fd5b50505050610e9c565b6002821415610a2957610e378160e001518260a001516101f8565b610160840152610140830152610120820181905260026101808301819052546040517fbecd1d84000000000000000000000000000000000000000000000000000000008152600160a060020a039091169163becd1d8491610de5918791600401611c02565b600260009054906101000a9004600160a060020a0316600160a060020a0316634bde38c86040518163ffffffff1660e060020a02815260040160206040518083038186803b158015610eed57600080fd5b505afa158015610f01573d6000803e3d6000fd5b505050506040513d601f19601f82011682018060405250810190610f25919061195f565b600160a060020a03166101c08201819052610160820151610f4691906113b4565b600280546101808301516040517fcdfb8b0e000000000000000000000000000000000000000000000000000000008152600160a060020a039092169263cdfb8b0e92610f9792889291600401611c49565b600060405180830381600087803b158015610fb157600080fd5b505af1158015610fc5573d6000803e3d6000fd5b5050825161012084015161014085015161016086015160e08701516101008801516101808901516040517f222e3d78124e2ea6d0fc2572222c713dd6c936bcd7b155790c9b250a5a7c36b8995061102798508c97969594939291600291611cb0565b60405180910390a1505050565b600254600160a060020a031681565b61104c336101e4565b61106b5760405160e560020a62461bcd0281526004016102ec9061212a565b6110736118fe565b60025460405160e060020a6373931bbf028152600160a060020a03909116906373931bbf906110a6908590600401611b9f565b6101006040518083038186803b1580156110bf57600080fd5b505afa1580156110d3573d6000803e3d6000fd5b505050506040513d601f19601f820116820180604052508101906110f79190611aa3565b5060c088015260a087015260808601526060850152604084015260208301528082526111385760405160e560020a62461bcd0281526004016102ec90611dc7565b60018160c001511461115f5760405160e560020a62461bcd0281526004016102ec90612161565b6002546040517fc4d252f5000000000000000000000000000000000000000000000000000000008152600160a060020a039091169063c4d252f5906111a8908590600401611b9f565b600060405180830381600087803b1580156111c257600080fd5b505af11580156111d6573d6000803e3d6000fd5b50506002546040517fcdfb8b0e000000000000000000000000000000000000000000000000000000008152600160a060020a03909116925063cdfb8b0e9150611229908590600390600090600401611c49565b600060405180830381600087803b15801561124357600080fd5b505af1158015611257573d6000803e3d6000fd5b505082516040517ff7db38418d99a43121d8a8fcc2275dafc4715ec4ad251cebbebcba1547b0df3c935061128e9250859190611c02565b60405180910390a15050565b6000600230836040516020016112b1929190611aff565b60408051601f19818403018152908290526112cb91611b27565b602060405180830381855afa1580156112e8573d6000803e3d6000fd5b5050506040513d601f19601f8201168201806040525081019061130b9190611993565b92915050565b600061131c336101e4565b61133b5760405160e560020a62461bcd0281526004016102ec9061212a565b611344826116c7565b506001919050565b6000670de0b6b3a76400006113618484611758565b61136b91906122f7565b9392505050565b600061136b83836040518060400160405280601e81526020017f536166654d6174683a207375627472616374696f6e206f766572666c6f7700008152506117a0565b6001546040517fa9059cbb000000000000000000000000000000000000000000000000000000008152600160a060020a0390911690819063a9059cbb906114019086908690600401611b7b565b600060405180830381600087803b15801561141b57600080fd5b505af115801561142f573d6000803e3d6000fd5b5050505060003d6000811461144b576020811461145557600080fd5b6000199150611461565b60206000803e60005191505b50806114825760405160e560020a62461bcd0281526004016102ec90612263565b50505050565b6001546040517f70a08231000000000000000000000000000000000000000000000000000000008152600091600160a060020a031690829082906370a08231906114d6903090600401611b43565b60206040518083038186803b1580156114ee57600080fd5b505afa158015611502573d6000803e3d6000fd5b505050506040513d601f19601f820116820180604052508101906115269190611993565b6040517f23b872dd000000000000000000000000000000000000000000000000000000008152909150600160a060020a038316906323b872dd9061157290889030908990600401611b57565b600060405180830381600087803b15801561158c57600080fd5b505af11580156115a0573d6000803e3d6000fd5b5050505060003d600081146115bc57602081146115c657600080fd5b60001991506115d2565b60206000803e60005191505b50806115f35760405160e560020a62461bcd0281526004016102ec90611e6c565b6001546040517f70a08231000000000000000000000000000000000000000000000000000000008152600091600160a060020a0316906370a082319061163d903090600401611b43565b60206040518083038186803b15801561165557600080fd5b505afa158015611669573d6000803e3d6000fd5b505050506040513d601f19601f8201168201806040525081019061168d9190611993565b9050828110156116b25760405160e560020a62461bcd0281526004016102ec90611f11565b6116bc838261234f565b979650505050505050565b600160a060020a0381166116f05760405160e560020a62461bcd0281526004016102ec90611d90565b60008054604051600160a060020a03808516939216917f8be0079c531659141344cd1fd0a4f28419497f9722a3daafe3b4186f6b6457e091a36000805473ffffffffffffffffffffffffffffffffffffffff1916600160a060020a0392909216919091179055565b6000826117675750600061130b565b60006117738385612330565b90508261178085836122f7565b1461136b5760405160e560020a62461bcd0281526004016102ec906120cd565b600081848411156117c75760405160e560020a62461bcd0281526004016102ec9190611cef565b5060006117d4848661234f565b95945050505050565b6040518060e00160405280600081526020016000815260200160008152602001600081526020016000815260200160008152602001600081525090565b604051806101600160405280600015158152602001600081526020016000815260200160008152602001600081526020016000815260200160008152602001600081526020016000815260200160008152602001600081525090565b604051806101e00160405280600081526020016000815260200160008152602001600081526020016000815260200160008152602001600081526020016000815260200160008152602001600081526020016000815260200160008152602001600081526020016000600160a060020a031681526020016000600160a060020a031681525090565b60405180610100016040528060008152602001600081526020016000815260200160008152602001600081526020016000815260200160008152602001600081525090565b600060208284031215611954578081fd5b813561136b816123c1565b600060208284031215611970578081fd5b815161136b816123c1565b60006020828403121561198c578081fd5b5035919050565b6000602082840312156119a4578081fd5b5051919050565b600080604083850312156119bd578081fd5b50508035926020909101359150565b6000806000606084860312156119e0578081fd5b505081359360208301359350604090920135919050565b600080604083850312156119bd578182fd5b60008060408385031215611a1b578182fd5b505080516020909101519092909150565b60008060008060808587031215611a41578081fd5b505082516020840151604085015160609095015191969095509092509050565b60008060008060008060c08789031215611a79578182fd5b505084359660208601359650604086013595606081013595506080810135945060a0013592509050565b600080600080600080600080610100898b031215611abf578182fd5b505086516020880151604089015160608a015160808b015160a08c015160c08d015160e0909d0151959e949d50929b919a50985090965094509092509050565b600160a060020a03929092166c01000000000000000000000000028252601482015260340190565b60008251611b39818460208701612366565b9190910192915050565b600160a060020a0391909116815260200190565b600160a060020a039384168152919092166020820152604081019190915260600190565b600160a060020a03929092168252602082015260400190565b901515815260200190565b90815260200190565b918252600160a060020a0316602082015260400190565b928352600160a060020a03919091166020830152604082015260600190565b938452600160a060020a039290921660208401526040830152606082015260800190565b918252602082015260400190565b9687526020870195909552600160a060020a039390931660408601526060850191909152608084015260a083015260c082015260e00190565b9283526020830191909152604082015260600190565b93845260208401929092526040830152606082015260800190565b978852602088019690965260408701949094526060860192909252608085015260a084015260c083015260e08201526101000190565b988952602089019790975260408801959095526060870193909352608086019190915260a085015260c084015260e08301526101008201526101200190565b6000602082528251806020840152611d0e816040850160208701612366565b601f01601f19169190910160400192915050565b60208082526011908201527f47616d6520737461747573206572726f72000000000000000000000000000000604082015260600190565b6020808252600b908201527f47616d6520657869737473000000000000000000000000000000000000000000604082015260600190565b6020808252601d908201527f6e6577206f776e657220697320746865207a65726f2061646472657373000000604082015260600190565b60208082526012908201527f47616d6520646f65736e27742065786973740000000000000000000000000000604082015260600190565b6020808252601f908201527f456e642074696d65206d757374206265203e2063757272656e742074696d6500604082015260600190565b6020808252601d908201527f4f7074696f6e206e6f7420696e207370656369666965642072616e6765000000604082015260600190565b60208082526018908201527f546f6b656e207472616e7366657220696e206661696c65640000000000000000604082015260600190565b60208082526014908201527f496e73756666696369656e742062616c616e6365000000000000000000000000604082015260600190565b60208082526014908201527f47616d6520686173206e6f742073746172746564000000000000000000000000604082015260600190565b6020808252601a908201527f546f6b656e207472616e7366657220696e206f766572666c6f77000000000000604082015260600190565b60208082526024908201527f5468652067616d6520726573756c74732068617665206265656e207375626d6960408201527f7474656400000000000000000000000000000000000000000000000000000000606082015260800190565b6020808252600c908201527f47616d65206973206f7665720000000000000000000000000000000000000000604082015260600190565b60208082526031908201527f5468652062657420616d6f756e742069732067726561746572207468616e207460408201527f6865206d696e696d756d20616d6f756e74000000000000000000000000000000606082015260800190565b6020808252602e908201527f5468652062657420616d6f756e74206973206c657373207468616e207468652060408201527f6d696e696d756d20616d6f756e74000000000000000000000000000000000000606082015260800190565b6020808252601f908201527f6d696e20616d6f756e74206d757374206265203e206d617820616d6f756e7400604082015260600190565b60208082526021908201527f536166654d6174683a206d756c7469706c69636174696f6e206f766572666c6f60408201527f7700000000000000000000000000000000000000000000000000000000000000606082015260800190565b60208082526017908201527f63616c6c6572206973206e6f7420746865206f776e6572000000000000000000604082015260600190565b60208082526013908201527f436865636b20737461747573206661696c656400000000000000000000000000604082015260600190565b60208082526014908201527f5468652067616d65206973206e6f74206f766572000000000000000000000000604082015260600190565b60208082526022908201527f53746172742074696d65206d757374206265203e3d2063757272656e7420746960408201527f6d65000000000000000000000000000000000000000000000000000000000000606082015260800190565b6020808252601d908201527f456e642074696d65206d757374206265203e2073746172742074696d65000000604082015260600190565b60208082526019908201527f546f6b656e207472616e73666572206f7574206661696c656400000000000000604082015260600190565b60208082526029908201527f4f7074696f6e2031206f72204f7074696f6e3220746f74616c2062657420616d60408201527f6f756e7420697320300000000000000000000000000000000000000000000000606082015260800190565b60008261232b577f4e487b710000000000000000000000000000000000000000000000000000000081526012600452602481fd5b500490565b600081600019048311821515161561234a5761234a612392565b500290565b60008282101561236157612361612392565b500390565b60005b83811015612381578181015183820152602001612369565b838111156114825750506000910152565b7f4e487b7100000000000000000000000000000000000000000000000000000000600052601160045260246000fd5b600160a060020a03811681146123d657600080fd5b5056fea26469706673582212200883bd5963c3fc6eca0f142f60426f1d38cf92ce1e898f4ed5a576aec788809764736f6c63430008000033",
  "immutableReferences": {},
  "source": "// SPDX-License-Identifier: GPL-3.0\npragma solidity >=0.5.16 <0.9.0;\n\nimport \"./SafeMath.sol\";\nimport \"./EIP20NonStandardInterface.sol\";\nimport \"./EIP20Interface.sol\";\nimport \"./IGameStorage.sol\";\nimport \"./Ownable.sol\";\n\ncontract PlatformGame is Ownable{\n    using SafeMath for uint256;\n\n    /**\n     * @notice Specified currency for betting\n     */\n    address public tokenContract;\n\n    /**\n     * @notice Game storage contract\n     */\n    IGameStorage public _storage;\n\n    /**\n     * @notice The game state definition\n     */\n    enum GameStatus {\n        NONE,\n        RUNNING,\n        ENDED,\n        CANCELLED\n    }\n\n    /**\n     * @notice The game result definition\n     */\n    enum GameResult {\n        NONE,\n        OPTION1,\n        OPTION2\n    }\n\n    /**\n     * @notice Event emitted when the new game created\n     */\n    event GameCreated(bytes32 gameHash, uint gameName, uint status, uint feeRate);\n\n    /**\n     * @notice Event emitted when the game over submitted result\n     */\n    event GameResultSubmitted(bytes32 gameHash, uint gameName, uint fee, uint agentFee, uint platformFee, uint option1Amount, uint option2Amount, uint status, uint result);\n\n    /**\n     * @notice Event emitted when the game canceled\n     */\n    event GameCancelled(bytes32 gameHash, uint gameName);\n\n    /**\n     * @notice Event emitted when user betting game\n     */\n    event PayerVote (bytes32 gameHash, uint gameName, address voter, uint amount, uint option, uint option1Amount, uint option2Amount);\n\n    /**\n     * @notice Event emitted when player cash out after game\n     */\n    event Withdraw(bytes32 gameHash, address account, uint amount, uint balance);\n\n    /**\n     * @notice Game constructor\n     * @param tokenContract_ The address of the Kusdt erc20 token\n     * @param storage_ The address of the storage contract\n     */\n    constructor(address tokenContract_, address storage_){\n        tokenContract = tokenContract_;\n        _storage = IGameStorage(storage_);\n        \n        /* Check whether the storage contract address is legal */\n        require(_storage.isStorage(), \"Check storage error\");\n    }\n\n    struct NewGameVars {\n        uint startTime;\n        uint endTime;\n        uint minAmount;\n        uint maxAmount;\n        uint feeRate;\n        uint status;\n        uint result;\n    }\n\n    /**\n     * @notice Proxy add new game\n     * @param name Unique game name\n     * @param startTime The game start time\n     * @param endTime The game end time\n     * @param minAmount The game bet minimum amount\n     * @param maxAmount The game betting maximum amount\n     * @param feeRate The fee rate charged by the platform and the agent after the game is over\n     */\n    function newGame(uint name, uint startTime, uint endTime, uint minAmount, uint maxAmount, uint feeRate) external onlyOwner returns (bytes32 gameHash){\n\n        /* Verify that the game start time must be greater than the current time */\n        require(startTime >= block.timestamp, \"Start time must be >= current time\");\n\n        /* Verify that the end time of the game must be greater than the start time */\n        require(endTime > startTime, \"End time must be > start time\");\n\n        /* Verify that the end time of the game must be greater than the current time */\n        require(endTime > block.timestamp, \"End time must be > current time\");\n\n        /* Verify that the maximum bet amount must be greater than the minimum bet amount */\n        require(maxAmount > minAmount, \"min amount must be > max amount\");\n\n\n        /* Generate game hash based on game name */\n        gameHash = sha256(abi.encodePacked(address(this), name));\n\n\n        NewGameVars memory vars;\n\n        /* Check if the game already exists */\n        (,, vars.endTime, vars.minAmount, vars.maxAmount, vars.feeRate, vars.status,) = _storage.getGame(gameHash);\n        require(vars.status == uint(GameStatus.NONE), \"Game exists\");\n\n        /* Write the game info into storage */\n        _storage.createGame(gameHash, name, startTime, endTime, minAmount, maxAmount, feeRate, uint(GameStatus.RUNNING));\n\n        /* Emit a GameCreated event */\n        emit GameCreated(gameHash, name, uint(GameStatus.RUNNING), feeRate);\n    }\n\n    struct CancelGameVars {\n        uint name;\n        uint startTime;\n        uint endTime;\n        uint minAmount;\n        uint maxAmount;\n        uint feeRate;\n        uint status;\n        uint result;\n    }\n\n    /**\n     * @notice Proxy cancel the game\n     * @param gameHash Hash of the game to be canceled\n     */\n    function cancel(bytes32 gameHash) external onlyOwner {\n        CancelGameVars memory vars;\n\n        /* Check if the game exists */\n        (vars.name, vars.startTime, vars.endTime, vars.minAmount, vars.maxAmount, vars.feeRate, vars.status,) = _storage.getGame(gameHash);\n        require(vars.name > 0, \"Game doesn't exist\");\n\n        /* Cancellation of the game must be made before submitting the game results */\n        require(vars.status == uint(GameStatus.RUNNING), \"Check status failed\");\n\n        /* Cancel and liquidate user bets */\n        _storage.cancel(gameHash);\n\n        /* Write the game state and result into storage */\n        _storage.setGameResult(gameHash, uint(GameStatus.CANCELLED), uint(GameResult.NONE));\n\n        /* Emit a GameCancelled event */\n        emit GameCancelled(gameHash, vars.name);\n    }\n\n    struct SubmitVars {\n\n        // Game info\n        uint name;\n        uint startTime;\n        uint endTime;\n        uint minAmount;\n        uint maxAmount;\n        uint feeRate;\n        uint status;\n\n        //Vote options total amount\n        uint option1Amount;\n        uint option2Amount;\n\n        //fee\n        uint fee;\n        uint agentFee;\n        uint platformFee;\n        uint result;\n\n        //address\n        address agent;\n        address platform;\n    }\n\n    /**\n     * @notice Proxy submit game result\n     * @param gameHash Hash of the game result to be submitted\n     * @param result The game result value of GameResult.OPTION1 or  GameResult.OPTION2\n     */\n    function submitGameResult(bytes32 gameHash, uint result) external onlyOwner {\n        SubmitVars memory vars;\n\n        /* Check if the game end time is reached */\n        (vars.name, vars.startTime, vars.endTime, vars.minAmount, vars.maxAmount, vars.feeRate, vars.status,) = _storage.getGame(gameHash);\n        require(block.timestamp > vars.endTime, \"The game is not over\");\n\n        /* Check if the game state is over or canceled */\n        require(vars.status == uint(GameStatus.RUNNING), \"The game results have been submitted\");\n\n        /* The result value submitted by the game must be within the specified value range */\n        require(result == uint(GameResult.OPTION1) || result == uint(GameResult.OPTION2), \"Option not in specified range\");\n\n        /* If one option bet amount is 0, the win or loss cannot be calculated */\n        (vars.option1Amount, vars.option2Amount,,) = _storage.getGameVote(gameHash);\n        require(vars.option1Amount > 0 && vars.option2Amount > 0, \"Option 1 or Option2 total bet amount is 0\");\n\n        /* Calculation of fees and settlement of user betting wins and losses */\n        if (result == uint(GameResult.OPTION1)) {\n            /* Calculate game service charge of agent and platform */\n            (vars.fee, vars.agentFee, vars.platformFee) = calculateFee(vars.option2Amount, vars.feeRate);\n\n            /* Set game result to option 1 */\n            vars.result = uint(GameResult.OPTION1);\n\n            /* Liquidation option 1 betting user's winning amount */\n            _storage.liquidateOption1(gameHash, vars.fee);\n\n        } else if (result == uint(GameResult.OPTION2)) {\n            /* Calculate game service charge of agent and platform */\n            (vars.fee, vars.agentFee, vars.platformFee) = calculateFee(vars.option1Amount, vars.feeRate);\n\n            /* Set game result to option 2 */\n            vars.result = uint(GameResult.OPTION2);\n\n            /* Liquidation option 2 betting user's winning amount */\n            _storage.liquidateOption2(gameHash, vars.fee);\n        } else {\n            revert(\"Option not in specified range\");\n\n        }\n        /* Send the fees of the platform to the corresponding address */\n        //vars.agent = _storage.agent();\n        vars.platform = _storage.platform();\n        //doTransferOut(vars.agent, vars.agentFee);\n\n        doTransferOut(vars.platform, vars.platformFee);\n\n        /* Write the game state and result into storage */\n        _storage.setGameResult(gameHash, uint(GameStatus.ENDED), vars.result);\n\n        /* Emit a GameResultSubmitted event */\n        emit GameResultSubmitted(gameHash, vars.name, vars.fee, vars.agentFee, vars.platformFee, vars.option1Amount, vars.option2Amount, uint(GameStatus.ENDED), vars.result);\n    }\n\n    /**\n     * @notice Calculate the fee amount charged by the final platform and agent\n     * @param amount Total amount of losers' bets\n     * @param feeRate The game setting fee ratio\n     */\n    function calculateFee(uint amount, uint feeRate) public view returns (uint fee, uint agentFee, uint platformFee){\n        /* Get the fee rate of fees charged by the agent */\n        uint agentFeeRate = _storage.agentFeeRate();\n\n        // fee = loseAmount * feeRate\n        fee = amount.wmul(feeRate);\n\n        // agentFee = fee * agentRate\n        agentFee = fee.wmul(agentFeeRate);\n\n        // platformFee = fee * (1-agentRate)\n        platformFee = fee.sub(agentFee);\n    }\n\n    /**\n     * @notice Calculate game hash based on game name\n     * @param name Total game name\n     */\n    function getGameHash(uint name) public view returns (bytes32){\n        return sha256(abi.encodePacked(address(this), name));\n    }\n\n    struct PlayGameVars {\n        bool verify;\n\n        uint name;\n        uint startTime;\n        uint endTime;\n        uint minAmount;\n        uint maxAmount;\n        uint feeRate;\n        uint status;\n        uint result;\n\n        uint option1Amount;\n        uint option2Amount;\n    }\n\n    /**\n     * @notice User initiates game bet\n     * @param gameHash Betting game hash\n     * @param amount Bet amount\n     * @param option Bet option\n     */\n    function play(bytes32 gameHash, uint amount, uint option) external {\n        PlayGameVars memory vars;\n\n        /* Check if game exists and game state must be in running state */\n        (vars.name, vars.startTime, vars.endTime, vars.minAmount, vars.maxAmount, vars.feeRate, vars.status,) = _storage.getGame(gameHash);\n        require(vars.status == uint(GameStatus.RUNNING), \"Game status error\");\n\n        /* Check if the game has started */\n        require(block.timestamp > vars.startTime, \"Game has not started\");\n\n        /* Check if the game is over */\n        require(block.timestamp < vars.endTime, \"Game is over\");\n\n        /* Check if the bet amount is greater than the minimum amount */\n        require(amount >= vars.minAmount, \"The bet amount is less than the minimum amount\");\n\n        /* Check if the bet amount is less than the maximum amount */\n        require(amount <= vars.maxAmount, \"The bet amount is greater than the minimum amount\");\n\n        /* Check if the bet option is the specified option */\n        require(option == uint(GameResult.OPTION1) || option == uint(GameResult.OPTION2), \"Option not in specified range\");\n\n        /* Transfer the amount of bet authorized by the player */\n        uint _amount = doTransferIn(msg.sender, amount);\n\n\n        if (option == uint(GameResult.OPTION1)) {\n            /* Write the payer betting option1 amount into storage */\n            _storage.setOption1(gameHash, msg.sender, _amount);\n\n        } else if (option == uint(GameResult.OPTION2)) {\n            /* Write the payer betting option1 amount into storage */\n            _storage.setOption2(gameHash, msg.sender, _amount);\n\n        } else {\n            revert(\"Option not in specified range\");\n\n        }\n\n        /* Get all bet amounts of the current player */\n        (vars.option1Amount, vars.option2Amount) = _storage.getPayerVote(gameHash, msg.sender);\n\n        /* Emit a PayerVote event */\n        emit PayerVote(gameHash, vars.name, msg.sender, _amount, option, vars.option1Amount, vars.option2Amount);\n    }\n\n    /**\n     * @notice The user withdraws the kusd won or wagered in a game\n     * @param gameHash The betting game hash\n     */\n    function withdraw(bytes32 gameHash) external returns (uint amount){\n\n        /* Check the amount of cash that the user can withdraw in the game */\n        amount = _storage.getBalance(gameHash, msg.sender);\n        require(amount > 0, \"Insufficient balance\");\n\n        /* Transfer to msg.sender */\n        doTransferOut(msg.sender, amount);\n\n        /* Write user balance into storage */\n        _storage.setBalance(gameHash, msg.sender, 0);\n\n        /* Emit a PayerVote event */\n        emit Withdraw(gameHash, msg.sender, amount, 0);\n    }\n\n    /**\n    * @dev Similar to EIP20 transfer, except it handles a False result from `transferFrom` and reverts in that case.\n     *      This will revert due to insufficient balance or insufficient allowance.\n     *      This function returns the actual amount received,\n     *      which may be less than `amount` if there is a fee attached to the transfer.\n     *\n     *      Note: This wrapper safely handles non-standard ERC-20 tokens that do not return a value.\n     *            See here: https://medium.com/coinmonks/missing-return-value-bug-at-least-130-tokens-affected-d67bf08521ca\n     */\n    function doTransferIn(address from, uint amount) internal returns (uint) {\n        EIP20NonStandardInterface token = EIP20NonStandardInterface(tokenContract);\n        uint balanceBefore = EIP20Interface(tokenContract).balanceOf(address(this));\n        token.transferFrom(from, address(this), amount);\n\n        bool success;\n        assembly {\n            switch returndatasize()\n            case 0 {// This is a non-standard ERC-20\n                success := not(0)          // set success to true\n            }\n            case 32 {// This is a compliant ERC-20\n                returndatacopy(0, 0, 32)\n                success := mload(0)        // Set `success = returndata` of external call\n            }\n            default {// This is an excessively non-compliant ERC-20, revert.\n                revert(0, 0)\n            }\n        }\n        require(success, \"Token transfer in failed\");\n\n        // Calculate the amount that was *actually* transferred\n        uint balanceAfter = EIP20Interface(tokenContract).balanceOf(address(this));\n        require(balanceAfter >= balanceBefore, \"Token transfer in overflow\");\n        return balanceAfter - balanceBefore; // underflow already checked above, just subtract\n    }\n\n    /**\n     * @dev Similar to EIP20 transfer, except it handles a False success from `transfer` and returns an explanatory\n     *      error code rather than reverting. If caller has not called checked protocol's balance, this may revert due to\n     *      insufficient cash held in this contract. If caller has checked protocol's balance prior to this call, and verified\n     *      it is >= amount, this should not revert in normal conditions.\n     *\n     *      Note: This wrapper safely handles non-standard ERC-20 tokens that do not return a value.\n     *            See here: https://medium.com/coinmonks/missing-return-value-bug-at-least-130-tokens-affected-d67bf08521ca\n     */\n    function doTransferOut(address to, uint amount) internal {\n        EIP20NonStandardInterface token = EIP20NonStandardInterface(tokenContract);\n        token.transfer(to, amount);\n        bool success;\n        assembly {\n            switch returndatasize()\n            case 0 {// This is a non-standard ERC-20\n                success := not(0)          // set success to true\n            }\n            case 32 {// This is a complaint ERC-20\n                returndatacopy(0, 0, 32)\n                success := mload(0)        // Set `success = returndata` of external call\n            }\n            default {// This is an excessively non-compliant ERC-20, revert.\n                revert(0, 0)\n            }\n        }\n        require(success, \"Token transfer out failed\");\n    }\n}\n\n\n",
  "sourcePath": "/Users/drunken/work/kpc/contracts/PlatformGame.sol",
  "compiler": {
    "name": "solc",
    "version": "0.8.0+commit.c7dfd78e.Emscripten.clang"
  },
  "schemaVersion": "3.4.1",
  "updatedAt": "2022-04-08T07:10:56.580Z",
  "devdoc": {
    "kind": "dev",
    "methods": {
      "calculateFee(uint256,uint256)": {
        "params": {
          "amount": "Total amount of losers' bets",
          "feeRate": "The game setting fee ratio"
        }
      },
      "cancel(bytes32)": {
        "params": {
          "gameHash": "Hash of the game to be canceled"
        }
      },
      "constructor": {
        "params": {
          "storage_": "The address of the storage contract",
          "tokenContract_": "The address of the Kusdt erc20 token"
        }
      },
      "getGameHash(uint256)": {
        "params": {
          "name": "Total game name"
        }
      },
      "newGame(uint256,uint256,uint256,uint256,uint256,uint256)": {
        "params": {
          "endTime": "The game end time",
          "feeRate": "The fee rate charged by the platform and the agent after the game is over",
          "maxAmount": "The game betting maximum amount",
          "minAmount": "The game bet minimum amount",
          "name": "Unique game name",
          "startTime": "The game start time"
        }
      },
      "play(bytes32,uint256,uint256)": {
        "params": {
          "amount": "Bet amount",
          "gameHash": "Betting game hash",
          "option": "Bet option"
        }
      },
      "submitGameResult(bytes32,uint256)": {
        "params": {
          "gameHash": "Hash of the game result to be submitted",
          "result": "The game result value of GameResult.OPTION1 or  GameResult.OPTION2"
        }
      },
      "withdraw(bytes32)": {
        "params": {
          "gameHash": "The betting game hash"
        }
      }
    },
    "version": 1
  },
  "userdoc": {
    "events": {
      "GameCancelled(bytes32,uint256)": {
        "notice": "Event emitted when the game canceled"
      },
      "GameCreated(bytes32,uint256,uint256,uint256)": {
        "notice": "Event emitted when the new game created"
      },
      "GameResultSubmitted(bytes32,uint256,uint256,uint256,uint256,uint256,uint256,uint256,uint256)": {
        "notice": "Event emitted when the game over submitted result"
      },
      "PayerVote(bytes32,uint256,address,uint256,uint256,uint256,uint256)": {
        "notice": "Event emitted when user betting game"
      },
      "Withdraw(bytes32,address,uint256,uint256)": {
        "notice": "Event emitted when player cash out after game"
      }
    },
    "kind": "user",
    "methods": {
      "_storage()": {
        "notice": "Game storage contract"
      },
      "calculateFee(uint256,uint256)": {
        "notice": "Calculate the fee amount charged by the final platform and agent"
      },
      "cancel(bytes32)": {
        "notice": "Proxy cancel the game"
      },
      "constructor": {
        "notice": "Game constructor"
      },
      "getGameHash(uint256)": {
        "notice": "Calculate game hash based on game name"
      },
      "newGame(uint256,uint256,uint256,uint256,uint256,uint256)": {
        "notice": "Proxy add new game"
      },
      "play(bytes32,uint256,uint256)": {
        "notice": "User initiates game bet"
      },
      "submitGameResult(bytes32,uint256)": {
        "notice": "Proxy submit game result"
      },
      "tokenContract()": {
        "notice": "Specified currency for betting"
      },
      "withdraw(bytes32)": {
        "notice": "The user withdraws the kusd won or wagered in a game"
      }
    },
    "version": 1
  }
}