{
  "contractName": "SafeMath",
  "abi": [
    {
      "inputs": [],
      "name": "wad",
      "outputs": [
        {
          "internalType": "uint256",
          "name": "",
          "type": "uint256"
        }
      ],
      "stateMutability": "pure",
      "type": "function"
    },
    {
      "inputs": [],
      "name": "ray",
      "outputs": [
        {
          "internalType": "uint256",
          "name": "",
          "type": "uint256"
        }
      ],
      "stateMutability": "pure",
      "type": "function"
    }
  ],
  "bytecode": "0x60d9610052600b82828239805160001a607314610045577f4e487b7100000000000000000000000000000000000000000000000000000000600052600060045260246000fd5b30600052607381538281f3fe73000000000000000000000000000000000000000030146080604052600436106059577c01000000000000000000000000000000000000000000000000000000006000350463416a8b208114605e5780637df38c5b146078575b600080fd5b6064607e565b604051606f9190609a565b60405180910390f35b6064608e565b6b033b2e3c9fd0803ce800000090565b670de0b6b3a764000090565b9081526020019056fea2646970667358221220c354526414e82e89034282d3b6054c3dcc71276f8ab18403dcdd0e5162b82e8a64736f6c63430008000033",
  "immutableReferences": {},
  "source": "// SPDX-License-Identifier: GPL-3.0\npragma solidity >=0.5.16 <0.9.0;\n\n\nlibrary SafeMath {\n    uint256 constant WAD = 10 ** 18;\n    uint256 constant RAY = 10 ** 27;\n\n    function wad() public pure returns (uint256) {\n        return WAD;\n    }\n\n    function ray() public pure returns (uint256) {\n        return RAY;\n    }\n\n    function add(uint256 a, uint256 b) internal pure returns (uint256) {\n        uint256 c = a + b;\n        require(c >= a, \"SafeMath: addition overflow\");\n\n        return c;\n    }\n\n    function sub(uint256 a, uint256 b) internal pure returns (uint256) {\n        return sub(a, b, \"SafeMath: subtraction overflow\");\n    }\n\n    function sub(uint256 a, uint256 b, string memory errorMessage) internal pure returns (uint256) {\n        require(b <= a, errorMessage);\n        uint256 c = a - b;\n\n        return c;\n    }\n\n    function mul(uint256 a, uint256 b) internal pure returns (uint256) {\n        // Gas optimization: this is cheaper than requiring 'a' not being zero, but the\n        // benefit is lost if 'b' is also tested.\n        // See: https://github.com/OpenZeppelin/openzeppelin-contracts/pull/522\n        if (a == 0) {\n            return 0;\n        }\n\n        uint256 c = a * b;\n        require(c / a == b, \"SafeMath: multiplication overflow\");\n\n        return c;\n    }\n\n    function div(uint256 a, uint256 b) internal pure returns (uint256) {\n        return div(a, b, \"SafeMath: division by zero\");\n    }\n\n    function div(uint256 a, uint256 b, string memory errorMessage) internal pure returns (uint256) {\n        // Solidity only automatically asserts when dividing by 0\n        require(b > 0, errorMessage);\n        uint256 c = a / b;\n        // assert(a == b * c + a % b); // There is no case in which this doesn't hold\n\n        return c;\n    }\n\n    function mod(uint256 a, uint256 b) internal pure returns (uint256) {\n        return mod(a, b, \"SafeMath: modulo by zero\");\n    }\n\n    function mod(uint256 a, uint256 b, string memory errorMessage) internal pure returns (uint256) {\n        require(b != 0, errorMessage);\n        return a % b;\n    }\n\n    function min(uint256 a, uint256 b) internal pure returns (uint256) {\n        return a <= b ? a : b;\n    }\n\n    function max(uint256 a, uint256 b) internal pure returns (uint256) {\n        return a >= b ? a : b;\n    }\n\n    function wmul(uint256 a, uint256 b) internal pure returns (uint256) {\n        return mul(a, b) / WAD;\n    }\n\n    function wmulRound(uint256 a, uint256 b) internal pure returns (uint256) {\n        return add(mul(a, b), WAD / 2) / WAD;\n    }\n\n    function rmul(uint256 a, uint256 b) internal pure returns (uint256) {\n        return mul(a, b) / RAY;\n    }\n\n    function rmulRound(uint256 a, uint256 b) internal pure returns (uint256) {\n        return add(mul(a, b), RAY / 2) / RAY;\n    }\n\n    function wdiv(uint256 a, uint256 b) internal pure returns (uint256) {\n        return div(mul(a, WAD), b);\n    }\n\n    function wdivRound(uint256 a, uint256 b) internal pure returns (uint256) {\n        return add(mul(a, WAD), b / 2) / b;\n    }\n\n    function rdiv(uint256 a, uint256 b) internal pure returns (uint256) {\n        return div(mul(a, RAY), b);\n    }\n\n    function rdivRound(uint256 a, uint256 b) internal pure returns (uint256) {\n        return add(mul(a, RAY), b / 2) / b;\n    }\n\n    function wpow(uint256 x, uint256 n) internal pure returns (uint256) {\n        uint256 result = WAD;\n        while (n > 0) {\n            if (n % 2 != 0) {\n                result = wmul(result, x);\n            }\n            x = wmul(x, x);\n            n /= 2;\n        }\n        return result;\n    }\n\n    function rpow(uint256 x, uint256 n) internal pure returns (uint256) {\n        uint256 result = RAY;\n        while (n > 0) {\n            if (n % 2 != 0) {\n                result = rmul(result, x);\n            }\n            x = rmul(x, x);\n            n /= 2;\n        }\n        return result;\n    }\n}",
  "sourcePath": "/Users/drunken/work/kpc/contracts/SafeMath.sol",
  "compiler": {
    "name": "solc",
    "version": "0.8.0+commit.c7dfd78e.Emscripten.clang"
  },
  "schemaVersion": "3.4.1",
  "updatedAt": "2022-04-08T07:10:56.597Z",
  "devdoc": {
    "kind": "dev",
    "methods": {},
    "version": 1
  },
  "userdoc": {
    "kind": "user",
    "methods": {},
    "version": 1
  }
}